:10000000AEC00000C9C00000C7C00000C5C00000ED
:10001000C3C00000C1C00000BFC00000BDC00000E0
:10002000BBC00000B9C00000B7C00000F8C70000A6
:10003000B3C00000B1C00000BDC70000ADC00000EB
:10004000ABC00000A9C000000C946C080C94AD0873
:10005000A3C00000A1C000009FC000009DC0000020
:100060009BC0000099C000007B0BD909D909D909B0
:10007000D9097B0BD909D909D909D909D9093A0B69
:10008000D909D909D909D909D909D70AD909D90961
:10009000760BD909D909D909D909D909D909D909B1
:1000A000D909D909D909C40A7B0BD909D909D909B0
:1000B000D9097B0BD909D909D909D909D9093A0B29
:1000C000D909D909D9098E0AD909D70AD909D9096B
:1000D000760BD70B590A590A590A590AD70B590AEC
:1000E000590A590A590A590A390B590A590A590A17
:1000F000590A590AD60A590A590AF30B590A590AD0
:10010000590A590A590A590A590A590A590A590AD7
:10011000C40AD70B590A590A590A590AD70B590A5E
:10012000590A590A590A590A390B590A590A590AD6
:100130008E0A590AD60A590A590AF30B45464765E9
:10014000666700202B2D2E30313233343536373868
:100150003968006364696E6F707375785800112494
:100160001FBECFEFD8E0DEBFCDBF12E0A0E0B1E010
:10017000E8EDF8E202C005900D92AA3CB107D9F76C
:1001800024E0AAECB2E001C01D92A736B207E1F765
:100190000E94C90F0C946A1433CFFFCF22D15CD0D8
:1001A00074D3ABD340E860E171E089ED93E030D2E5
:1001B000FC019093CE038093CD0391E095879093BB
:1001C000F903789485E091E0A6C20F931F93CF9333
:1001D000DF938091D5039091D60301969093D60337
:1001E0008093D503A091CF03B091D00383E0AF3CBF
:1001F000B80769F114968D919C9115970197159602
:100200009C938E931497892B11F50FEC13E016969F
:10021000ED91FC91179717961C921E921697CD910F
:10022000DC9111971B830A83D093D003C093CF0333
:1002300018968D919C9119970995A091CF03B09133
:10024000D00314968D919C911597892B01F3DF9122
:10025000CF911F910F910895E2ECF3E08FEC93E0C2
:1002600096878587908B87878FEF9FEF928B818B07
:10027000148A138A0895CF93DF93DC0119963C9377
:100280002E93189717965C934E931697E091CF0391
:10029000F091D003248135812617370750F4621B73
:1002A000730B0190F081E02D2481358126173707EB
:1002B000B0F31196FC93EE93C281D3811396DC9335
:1002C000CE931297B983A883B383A28315967C93A8
:1002D0006E93149784819581861B970B95838483F5
:1002E0008FEF9FEF9093D4038093D303DF91CF914F
:1002F0000895CF93DF93FC01A081B18114962D91D5
:100300003C91159784819581820F931F15969C933C
:100310008E931497C281D381B983A883A081B181C0
:100320001396DC93CE931297178216828FEF9FEF6E
:100330009093D4038093D303DF91CF910895CF930B
:10034000DF93DC011D968C911D97843099F170F537
:10035000882349F1833031F45096ED91FC91519707
:10036000118210828FEF9FEF51969C938E9350973E
:100370001D961C921D9714962C911497E2ECF3E0B5
:100380000190F081E02D94819217D0F71196FC93A3
:10039000EE93C281D3811396DC93CE931297B983E7
:1003A000A883B383A283DF91CF910895853089F02C
:1003B0008730C1F61296ED91FC9113978D919C9127
:1003C000119791838083CD91DC911197FB83EA8310
:1003D000C9CF5096ED91FC91519784818F5F8483B2
:1003E000E9CFE2ECF3E0F183E083F383E28314826C
:1003F000F087E783F287E1870895CF93DF93DC01ED
:100400001D961C921D9714962C911497E2ECF3E024
:100410000190F081E02D94819217D0F71196FC9312
:10042000EE93C281D3811396DC93CE931297B98356
:10043000A883B383A283CD01DF91CF910895CF9399
:10044000DF93E2ECF3E063857485DB011D968C930A
:1004500080819181EC01A881B981B183A083139639
:10046000FC93EE9312979487838721E02D8752D2D5
:10047000DF91CF9108951F93CF93DF93CDB7DEB770
:100480002A970FB6F894DEBF0FBECDBF182F6F3F6F
:100490008FEF780711F12091CD033091CE034FE912
:1004A00051E0CE010196E7DE812FC9DF8F8198856B
:1004B000892B19F0CE0101961CDFE091CD03F0915C
:1004C000CE03808991892A960FB6F894DEBF0FBEBD
:1004D000CDBFDF91CF911F910895812FB0DFEDCF78
:1004E000CF93DF93DC01C091CD03D091CE03519621
:1004F0007C936E93509714962C9114978C8182174D
:10050000D8F01D961C921D97E2ECF3E00190F0816B
:10051000E02D94819217D0F71196FC93EE93C2814F
:10052000D3811396DC93CE931297B983A883B383B8
:10053000A283DF91CF9108951D86E2ECF3E0019054
:10054000F081E02D94819817D0F7CD01F983E883ED
:10055000A281B381BB83AA83CD93DC93D383C2836F
:100560009093CE038093CD0321E0FC012587BE014B
:10057000D1D1DF91CF910895A091C203B091C3036F
:10058000E091CD03F091CE0381E014962C919481FB
:10059000921708F080E00895CF93DF93A091CD03E8
:1005A000B091CE034091C2035091C303EA01E881A8
:1005B000F981F093C303E093C20382EC93E0938349
:1005C00082835093CE034093CD0381E08D871D96A7
:1005D0001C921D9714962C91149703C00190F081E2
:1005E000E02D94812917D0F31196FC93EE9382812C
:1005F000938113969C938E931297EC01B983A883F1
:10060000B383A283BD01CA0185D1DF91CF91089543
:10061000CF93DF93FC01448382E085871686438F66
:10062000128E118E108E81E0878774876387A2EC0B
:10063000B3E0B087A7831996CD91DC911A97D28742
:10064000C187F887EF831A96FC93EE931997CF0131
:100650004296938B828B0296958B848B978B868B9D
:10066000CF01DF91CF910895CF93DF93EC014C81BF
:100670005D81FA017C97CA01C197968385832F819A
:10068000DC0152962C935297288551962C935197C2
:10069000298550962C9350972A851F962C931F9747
:1006A00029EB34E053963C93539754962C938E81C8
:1006B00028813981848392E095871686838F128EF4
:1006C000118E108E81E0878734872387C2ECD3E0B8
:1006D000D087C78389859A8592878187DC011896A0
:1006E000FC93EE931797FA87E987EA012A97D98353
:1006F000C883DA0118970B2E11960C921197AC93C0
:100700000A2E1B2E13961C920E9211241297CF01C3
:10071000DF91CF910895CF93DF93F894A5DFEC019B
:1007200060E070E0DDDE7894CE01DF91CF91089536
:100730000F931F93CF93DF93C091CD03D091CE033E
:10074000998B888B8E010E5E1F4F8A899B890817B3
:10075000190759F0FC01208131813B8B2A8B4DDE3A
:100760008A899B8980179107A9F78F8581110CC011
:10077000E985FA858F81988590878783AF81B885D1
:100780001A96FC93EE9319978FE0DF91CF911F910A
:100790000F9155CEF894CCCFCF93DF9361157105AF
:1007A00099F0E091CD03F091CE0391838083EC0129
:1007B000AA81BB81B383A283ED93FC93FB83EA837D
:1007C00084E0DF91CF9157CE8FEF9FEFDF91CF91F4
:1007D0000895CF93DF93FC0180819181E817F90799
:1007E00071F0EC01A881B981B183A0831396FC93C9
:1007F000EE931297798B688BDF91CF91FECDDF91CD
:10080000CF910895FC019183808393838283158225
:1008100014820895FC01908D692B608F85858A3044
:1008200059F08B3009F00895808968238613FBCF37
:10083000118A108ACF01E1CD80896823C9F7089514
:10084000EF92FF921F93CF93DF937C01162FFC0151
:10085000C081D1818C179D0791F08D81812B8D8373
:10086000112319F09E81892321F06C818A819B815B
:10087000D1DF0990D881C02DEC16FD0671F7DF910C
:10088000CF911F91FF90EF900895E5EFF3E08AEC90
:1008900092E0918380838AE493E093838283089536
:1008A000F8949B0121503109719561957109E0918E
:1008B000F503F091F6034E0F5F1F420F531F4623BF
:1008C0005723820F931F68237923CA01860F971F2E
:1008D0002091F7033091F8032817390750F08E174D
:1008E0009F0738F09093F6038093F503CA0178943C
:1008F000089580E090E078940895EAE4F3E080E5DC
:1009000094E091838083138212821582148280E5A1
:1009100093E078CF2F923F924F925F926F927F92A7
:100920008F929F92AF92BF92CF92DF92EF92FF92FF
:100930000F931F93CF93DF93FB010DB605820EB685
:100940000682FC0105800DBE06800EBEDF91CF91B0
:100950001F910F91FF90EF90DF90CF90BF90AF90DD
:100960009F908F907F906F905F904F903F902F90CF
:1009700008957894C201F10109950CCFE8D28DE376
:1009800091E0E6D24DD26ED257D400C03EC3AF92B2
:10099000BF92CF92DF92EF92FF920F931F93CF936C
:1009A000DF93EC016B018A018C819D81841795078F
:1009B00010F40C811D816C857D85E884F984E61A2C
:1009C000F70A0E151F0598F1E016F106D0F0A80100
:1009D000C6010E946D138E819F819D878C878C81BB
:1009E0009D81801B910B9D838C83C801DF91CF91EA
:1009F0001F910F91FF90EF90DF90CF90BF90AF903D
:100A00000895A701C6010E946D135801AE18BF08D2
:100A10006E817F81A501C6018E0D9F1D0E946D1301
:100A20008E819F81A80EB91EBD86AC86D8CFA80145
:100A3000C6010E946D138C859D85800F911F9D8737
:100A40008C87CDCFAF92BF92CF92DF92EF92FF9281
:100A50000F931F93CF93DF93EC016B018A018C817D
:100A60009D818417950710F40C811D818A859B85D3
:100A7000E884F984E81AF90A0E151F0598F1E016C2
:100A8000F106D0F0A801B6010E946D138E819F81FE
:100A90009B878A878C819D81801B910B9D838C8392
:100AA000C801DF91CF911F910F91FF90EF90DF90E0
:100AB000CF90BF90AF900895A701B6010E946D132B
:100AC0005801AE18BF08B6016E0D7F1DA5018E81BD
:100AD0009F810E946D138E819F81A80EB91EBB86D7
:100AE000AA86D8CFA801B6010E946D138A859B857E
:100AF000800F911F9B878A87CDCF0F931F93FC0197
:100B000091838083938382831582148277836683A3
:100B10007587648773876287640F751F7187608725
:100B200037872687118B008B1F910F910895FC0149
:100B3000A285B38584859585A817B907E1F08481DE
:100B40009581019695838483CD0101969387828751
:100B50006C9322853385808591852817390720F08D
:100B60008681978193878287CF0160E070E031DED4
:100B700080E090E0089584819581892B01F38FEFC7
:100B80009FEF08950F931F93CF93DF93EC018B0199
:100B9000F89405C0B801CE01FFDD97FD27C08C8118
:100BA0009D81892BB9F38C819D8101979D838C83D5
:100BB000EC85FD85CF0101969D878C871081288566
:100BC00039858217930720F08E819F819D878C87BE
:100BD000EE85FF85309711F0CE0109957894812F2D
:100BE00090E0DF91CF911F910F9108957894DF915C
:100BF000CF911F910F9108956F927F928F929F9244
:100C0000AF92BF92CF92DF92EF92FF920F931F931A
:100C1000CF93DF934C017B016A013901FC01A6846B
:100C2000B784F89400E010E0452B81F41BC0A114B8
:100C3000B10419F0C401F501099578940C0F1D1F3A
:100C4000EC0EFD1EF8940C151D0560F4A601B7010D
:100C5000C4019DDEEC01892B51F7B301C4019CDD79
:100C6000892B89F37894C801DF91CF911F910F915F
:100C7000FF90EF90DF90CF90BF90AF909F908F90BC
:100C80007F906F9008950F931F93FC019183808351
:100C900093838283558344837783668375876487D0
:100CA00073876287460F571F51874087378726878C
:100CB000118B008B1F910F910895FF920F931F933B
:100CC000CF93DF93EC01F62E8A01F89405C0B801AA
:100CD000CE0162DD97FD2AC08C819D81892BB9F3FD
:100CE0008C819D8101979D838C83EA85FB85CF0153
:100CF00001969B878A87F0822A853B85888599851E
:100D00002817390720F08E819F819B878A87EE857F
:100D1000FF85309711F0CE010995789480E090E03E
:100D2000DF91CF911F910F91FF9008957894DF91FB
:100D3000CF911F910F91FF900895CF93FC01A4854F
:100D4000B585828593858A179B07E1F0848195811B
:100D5000019695838483CD01019695878487CC91F4
:100D6000208531858217930740F4CF0160E070E061
:100D700030DD8C2F90E0CF91089586819781958703
:100D80008487F3CF84819581892B01F38FEF9FEFC7
:100D9000F2CF6F927F928F929F92AF92BF92CF923B
:100DA000DF92EF92FF920F931F93CF93DF934C014B
:100DB0007B016A013901FC01A684B784F89400E044
:100DC00010E0452B81F41BC0A114B10419F0C4013B
:100DD000F501099578940C0F1D1FEC0EFD1EF8947B
:100DE0000C151D0560F4A601B701C4012BDEEC0152
:100DF000892B51F7B301C401CFDC892B89F3789497
:100E0000C801DF91CF911F910F91FF90EF90DF907C
:100E1000CF90BF90AF909F908F907F906F900895EC
:100E200052C121E0FC0120831282118208950596AF
:100E3000E3CE2FEF3FEF0596DFCE4796AACF2FEFF9
:100E40003FEF4796A6CF05969DCE6FEF7FEF0596B5
:100E500099CE479632CF4FEF5FEF47962ECF80E087
:100E600090E00895B1C1EF92FF920F931F93CF933B
:100E7000DF93EC019B017A01FC0186E291E0819312
:100E80009193FB83EA8381E08C83BE01675D7F4F92
:100E90008E0140E150E0CE0105962FDEBE01675C79
:100EA0007F4F970140E150E0CE014796ECDEDF91A5
:100EB000CF911F910F91FF90EF900895CF93DF9303
:100EC000EC01F89488D182E08C837894DF91CF9103
:100ED00008951F93CF93DF93EC01162F89859A8590
:100EE000892B51F0612FCE01059621DE97FD0EC0B2
:100EF000DF91CF911F91089564E0CE010296A0DCAE
:100F0000612FCE01059613DE97FFF2CF60E0CE0190
:100F10000296DF91CF911F9193CC0F931F93CF93A4
:100F2000DF938C01479609DFEC0197FD06C0CE01E7
:100F3000DF91CF911F910F91089568E0C80102964B
:100F40007FDCCE01DF91CF911F910F91089508951D
:100F5000FC01808185B9818184B9828188B98381CE
:100F600087B984818BB985818AB90895FC014230A3
:100F7000C9F098F04530B1F0463021F48181682BFA
:100F8000618308954330E9F78181962F90958923F5
:100F900081838281682B62830895442319F0413054
:100FA00099F30895818160958623818382816823E6
:100FB000628308951F920F920FB60F9211242F9300
:100FC0003F934F935F936F937F938F939F93AF93D1
:100FD000BF93EF93FF9381E08093F903F6D81092CB
:100FE000F903CADA8111D8DAFF91EF91BF91AF917D
:100FF0009F918F917F916F915F914F913F912F9131
:101000000F900FBE0F901F90189582E084BD85BD94
:101010009FE797BD16BC85BB80936E0008951F9215
:101020000F920FB60F9211242F933F934F935F931C
:101030006F937F938F939F93AF93BF93EF93FF93A0
:1010400081E08093F903809100049091010401965E
:1010500090930104809300042091FE033091FF03DC
:1010600082179307B1F01092F90386DA811194DAAE
:10107000FF91EF91BF91AF919F918F917F916F9170
:101080005F914F913F912F910F900FBE0F901F9046
:10109000189510920104109200048091FA03843094
:1010A00041F0E0910204F09103048AEF93E0099586
:1010B000DACF92E09093FA0380918100887F809349
:1010C000810096BBEECF8AEF93E0ABCEE1ECF0E08F
:1010D00080818062808308951F920F920FB60F92D5
:1010E00011242F933F934F935F936F937F938F932D
:1010F0009F93AF93BF93EF93FF9381E08093F903A6
:101100008091C000982F9C71D9F46091C60084E052
:1011100094E0DFDE1092F9032FDA81113DDAFF91BE
:10112000EF91BF91AF919F918F917F916F915F915F
:101130004F913F912F910F900FBE0F901F901895D8
:1011400083FD09C060E082FD606284FD606486E02A
:1011500094E076DBDACF60E8F6CF1F920F920FB6FD
:101160000F9211242F933F934F935F936F937F932D
:101170008F939F93AF93BF93EF93FF9381E08093FF
:10118000F90384E094E0C9DE97FD18C08093C6009F
:101190001092F903F1D98111FFD9FF91EF91BF911D
:1011A000AF919F918F917F916F915F914F913F91FF
:1011B0002F910F900FBE0F901F9018958091C10036
:1011C0008F7D8093C100E4CF46E658E060E070E098
:1011D00084E094E048CE6115710519F18450944083
:1011E00009F00895FB0180818093C40081818F7094
:1011F0008093C50082E08093C00088E98093C1009D
:1012000082818130B9F0A0F0823071F0843071F4C5
:101210008091C10084608093C10086E08093C20009
:1012200008956AE371E0DACF84E0F8CF86E0F6CF84
:1012300080E0F4CF82E0F2CF109269001DBA0895E9
:101240002F923F924F925F926F927F928F929F92D6
:10125000AF92BF92CF92DF92EF92FF920F931F93C4
:10126000CF93DF93CDB7DEB7A2970FB6F894DEBF6A
:101270000FBECDBF1C016B01588F4F8B1E8A1D8A7C
:101280009E012E5F3F4F3E872D87AE014F5F5F4F20
:10129000588B4F87241B350B38A32F8F21503109D2
:1012A0003AA329A3CE010C969A8B898B86010F5FF6
:1012B0001F4FD6016C916623B9F0653281F1D101DF
:1012C000ED91FC910680F781E02DC1010995ED8932
:1012D000FE893196FE8BED8B680186010F5F1F4FF3
:1012E000D6016C916111E9CF8D899E89A2960FB6C6
:1012F000F894DEBF0FBECDBFDF91CF911F910F914C
:10130000FF90EF90DF90CF90BF90AF909F908F9025
:101310007F906F905F904F903F902F900895D601EF
:1013200011968C9111978D3209F4ECC01A8E80338E
:1013300009F4E1C020E2298FA8014F5F5F4F00E070
:1013400010E0EF89F88D13C0908132969801220F3A
:10135000331F000F111F000F111F000F111F020F6D
:10136000131F090F111D4F5F5F4FD6018C916A014A
:1013700090ED980F9A3050F38A3231F3F88FEF8B5B
:1013800020E030E08E3209F496C0982F9F7D9C3487
:1013900009F47EC0AFEBA80F91E0AA3108F090E00D
:1013A000482F50E0FA01E454F109E533F10508F45F
:1013B000B1C08983EF8DF8A189A09AA0AE014F5FDB
:1013C0005F4F7A015801AE1ABF0AB7FCDAC05A8DD6
:1013D00051115BC0002711270A191B0909F45CC1D0
:1013E000D7018C918D3209F460C1798CD101ED91D6
:1013F000FC910680F781E02D672DC10109950F5FF3
:101400001F4FA1F72D893E892F5F3F4F81E090E06C
:101410008A199B09A901481B590B5E8B4D8B97FCC0
:1014200045CFA12CB12C8401F70161917F01D1013D
:10143000ED91FC910680F781E02DC10109950150E5
:10144000110990F78D899E89019697FC2BC1F401B3
:10145000E80FF91FFE8BED8BA114B10409F426CF20
:101460008501F98CD101ED91FC910680F781E02D89
:101470006F2DC101099501501109A1F7ED89FE8970
:10148000EA0DFB1DFE8BED8B11CF97FECCCFE4CF89
:10149000D6014C91442309F48CCFFFEFCF1ADF0A19
:1014A000842F90E0FC01E454F109E533F10508F4E0
:1014B000F6C0842F7ECFDF010FC09C911296A90148
:1014C000440F551F220F331F220F331F220F331FCC
:1014D000240F351F290F311DEFEFCE1ADE0AF6015A
:1014E0003197808190ED980F9A3048F38A3229F332
:1014F000B88FAF8B4ACFF80181810F5F1F4FF0E3A8
:10150000F98F1ACF86010E5F1F4F12968C91B1E0B2
:10151000BA8F0DCFEC5CFF4F0C9408138F89988D18
:101520000296AF89B88DED90FC90E114F10409F4B6
:101530006AC1F7012115310509F4D1C04081442366
:1015400009F466C121503109F701319605C02150D7
:10155000310908F44DC1FB01BF016F5F7F4F40812E
:101560004111F5CFEE19FF094F0121E0821A9108D0
:10157000988F8F8B30E2398F5801AE1ABF0AB7FEB1
:1015800026CFA12CB12C23CFAF89B88D8C91898324
:10159000EF8DF8A189A09AA01296B88FAF8BB0E218
:1015A000B98F9E012F5F3F4F79010CCF91E04AE048
:1015B00050E060E070E0911164C0EF89F88D8080A8
:1015C0009180A12CB12C3296F88FEF8B240135013C
:1015D0009E01245F3F4F3C8B2B8B1C8F0B8F7A011E
:1015E0008B01DE8ECD8EC501B401A8019701F4D721
:1015F0009B01205D3F4F2A33310514F0295F3F4F97
:10160000D22EAB89BC892E93BC8BAB8BC501B401A8
:10161000A8019701E1D749015A01C301B201A8010C
:101620009701DAD729013A01232B242B252BD9F650
:101630000B8D1C8DFD2CCD8CDE8C89899A89EB89D4
:10164000FC898E1B9F0BDE01119631969D01280FA0
:10165000391F01C0F190FD92A217B307D9F74C01D1
:10166000F1E08F1A9108FC019E012F5F3F4F790135
:10167000A9CE91E048E050E060E070E0992309F4E1
:101680009CCFAF89B88D8D909D90AD90BC901397F5
:101690001496B88FAF8B9ACF97FEC3CE07CEE7597B
:1016A000FF4FB6C7812C912CD2CEB98DB03309F043
:1016B0009CCEEFEFEE1AFE0AD101ED91FC9106806F
:1016C000F781E02D6DE2C1010995ED89FE89319622
:1016D000FE8BED8BF1E08F1A9108798C87CE2081FB
:1016E000222309F495C02EEF3FE72ECF40E150E0D2
:1016F00060E070E060CFAA3108F459C0EF89F88D3E
:1017000080809180092C000CAA08BB083296F88FC3
:10171000EF8BB7FC58C0AE014F5F5F4F5C8F4B8FB4
:101720008B8D9C8D0B969C8B8B8B240135011E8F92
:101730000D8F7C01C501B4012AE030E040E050E0AB
:101740004BD7605D7F4F162FD7016E937D01490106
:101750005A01C301B2012AE030E040E050E03CD73A
:1017600029013A01232B242B252B21F7C701F12E28
:101770000D8D1E8DEB8DFC8DDC0111962B893C8926
:10178000281B390BC9018E0F9F1F01C0FD90F192DC
:10179000E817F907D9F74F855889E41BF50B4F0176
:1017A00051E0851A9108CE0101967C010BCEAF89DC
:1017B000B88D8D909D90AD90BC9013971496B88F76
:1017C000AF8BB7FEA8CF8DE28983B094A09490949C
:1017D0008094811C911CA11CB11C9E012E5F3F4F67
:1017E0003C8F2B8F9DCF40E150E060E070E049CF0F
:1017F000EE19FF094F0151E0851A9108988F8F8BE0
:1018000080E2898FDFCD43E4E42E41E0F42E91CED7
:10181000580117FD0EC05A8D988F8F8B511106C03D
:1018200088248A94982C80E2898FD4CDF0E2F98FB5
:1018300013CEA12CB12CEFCFCF93DF93CDB7DEB772
:10184000AE01475F5F4F6F8178858D819E81F8DCA7
:10185000DF91CF91089546E060E283E290E086DB7D
:1018600046E060E183E290E081DB46E068E083E20D
:1018700090E07CDB46E064E083E290E077DB46E0EA
:1018800062E083E290E072DB46E061E083E290E0B8
:101890006DDB46E061E086E290E068DB46E062E016
:1018A00086E290E063DB46E060E889E290E05EDBA0
:1018B00042E064E089E290E059DB42E068E089E2DE
:1018C00090E054DB42E060E189E290E04FDB42E0EF
:1018D00060E289E290E04ADB42E060E489E290E085
:1018E00045DB2D982C982B982A9829982898409A6F
:1018F000419A5F988AE491E09F938F9384E094E00B
:101900009F938F9399DF0F900F900F900F900895F2
:101910008F929F92AF92BF92CF92DF92EF92FF92FF
:101920000F931F93CF93DF93F8948090D5039090FB
:10193000D603789428E03DE3DC0170D669517C4FF2
:101940008F4F9F4F28EE33E040E050E023D68901CF
:10195000940180E096E7A92E91E0B92E44E0E42EB0
:1019600044E0F42E5DE5C52E51E0D52EF894C091EB
:10197000D503D091D60378948130B1F0809158038B
:10198000853089F14098CE01821B930B88309D43AE
:10199000B8F580E0C819D9090C171D0738F7409A27
:1019A000419A8CE691E014C041989091580395308B
:1019B000D1F0AE01421B530B48305D4370F5C8199E
:1019C000D9090C171D0790F6409A419A85E891E0D5
:1019D0009F938F9384E094E09F938F932DDF0F90DC
:1019E0000F900F900F90DF91CF911F910F91FF906B
:1019F000EF90DF90CF90BF90AF909F908F90089521
:101A0000DF92CF92FF92EF9217DF409A0F900F90E4
:101A10000F900F909E0181E0BDCFBF92AF92FF92D9
:101A2000EF920ADF419A0F900F900F900F909E0156
:101A300080E0C5CFCF92DF92EF92FF920F931F937A
:101A4000CF93DF9380915803823009F47AC148F034
:101A5000843009F46BC008F44FC1853009F05DC0D3
:101A6000FFCF882309F499C0813009F056C0289A25
:101A700029982A982B985F9880915804863009F409
:101A80009BC1873009F049C080EE91E09F938F930E
:101A9000C4E0D4E0DF93CF93CFDE809159049091DE
:101AA0005A0436DF82E08093580388E080934D0427
:101AB000109253041092520480ED97E090935504D5
:101AC0008093540480EA9FE09093570480935604D7
:101AD000F8948091D5039091D603789490934F0415
:101AE00080934E0490935104809350048EEE91E0C5
:101AF0009F938F93DF93CF939FDE28988AEF91E097
:101B00009F938F93DF93CF9397DE8DB79EB70C96FD
:101B10000FB6F8949EBF0FBE8DBFDF91CF911F917E
:101B20000F91FF90EF90DF90CF900895289829981B
:101B30002A982B9A5F98809160048E3071F74098B4
:101B4000F8948091D5039091D60378949093620491
:101B500080936104A0916504B091660420916304B0
:101B600030916404EC01C21BD30B28E03DE356D551
:101B700069517C4F8F4F9F4F28EE33E040E050E09B
:101B800009D52C173D0748F6409A10925803109239
:101B90005F0410925E042B98C0CF80E991E09F9380
:101BA0008F9384E094E09F938F9346DE0F900F9085
:101BB0000F900F9084E0C82E9EE0D92E20EA3FE0DF
:101BC00003E010E043E0E42E5BE0F52EC2E0D0E05D
:101BD000B1E0A6E0F2E0E8E060ED77E041E050E05F
:101BE00066C05F9A289A299A2A9A2B9AB09358032A
:101BF000A093580430935A04209359044E9B55C027
:101C0000F0935803E0934D04109253041092520441
:101C100070935504609354043093570420935604F2
:101C2000F8948091D5039091D603789490934F04C3
:101C300080934E04909351048093500450935F041A
:101C400040935E0428984E9B52C0E0925803F09255
:101C50005B0430935D0420935C04D0935F04C093D5
:101C60005E0429984E9B21C0C0925803D092600414
:101C7000F8948091D5039091D60378949093620460
:101C800080936104909364048093630430936604AA
:101C90002093650410935F0400935E042A984E9B82
:101CA00004C010925F0410925E044D9912C080919E
:101CB0005E0490915F04009709F493CF8130910501
:101CC00009F4C1CF8230910569F2039741F34D9B2E
:101CD000EECF8DEA91E09F938F9384E094E09F9301
:101CE0008F93AADD0F900F900F900F9016CF8091D9
:101CF0005E0490915F04E9CF289829982A9A2B983E
:101D00005F9880915B048C3009F4E0C08D3009F459
:101D1000F3C08B3009F001CF8EE592E09F938F9353
:101D200084E094E09F938F9387DD2C9A0F900F901F
:101D30000F900F904C9BF1CE2C988CE080935B041D
:101D4000ECCE2898299A2A982B985F9880914D0478
:101D5000893009F47BC08A3009F44EC0883009F01C
:101D6000DCCE8BE092E09F938F93C4E0D4E0DF93CE
:101D7000CF9362DD8091560490915704C9DDF894A9
:101D80008091D5039091D6037894909351048093D9
:101D9000500489E080934D048BE192E09F938F93F0
:101DA000DF93CF9349DD8DB79EB708960FB6F894B1
:101DB0009EBF0FBE8DBFB1CE2C9A82EC91E09F9357
:101DC0008F93C4E0D4E0DF93CF9336DD0F900F9074
:101DD0000F900F904C9BA1CE81ED91E09F938F933C
:101DE000DF93CF9329DD2C9887E0809358040F90E0
:101DF0000F900F900F9091CE2D9A4B9B8ECE2D98D9
:101E00008FE392E09F938F93C4E0D4E0DF93CF936E
:101E100013DD29988DE492E09F938F93DF93CF9306
:101E20000BDD83E0809358038BE080935B0480EAB2
:101E30009FE090935D0480935C048DB79EB70896F5
:101E40000FB6F8949EBF0FBE8DBF67CEF8948091F9
:101E5000D5039091D603789490934F0480934E04C9
:101E6000A0915404B0915504209150043091510434
:101E7000EC01C21BD30B28E03DE3D0D369517C4F6A
:101E80008F4F9F4F28EE33E040E050E083D32C1774
:101E90003D0708F042CEF8948091D5039091D60387
:101EA00078949093510480935004809152049091BF
:101EB0005304833091050CF062C001969093530453
:101EC0008093520488E080934D0427CE8EE692E002
:101ED0009F938F9384E094E09F938F93ADDC8091E8
:101EE0005C0490915D0414DD8DE080935B040F90A1
:101EF0000F900F900F9011CE8EE792E09F938F93EB
:101F0000C4E0D4E0DF93CF9397DC2D9A0F900F902D
:101F10000F900F904B9B01CE2D9884E08093580337
:101F20008EE080936004F8948091D5039091D6035D
:101F300078949093620480936104909364048093F6
:101F4000630480EA9FE0909366048093650480E9CF
:101F500092E09F938F93DF93CF936EDC2A988EE964
:101F600092E09F938F93DF93CF9366DC8DB79EB7FC
:101F700008960FB6F8949EBF0FBE8DBFCECD1092BF
:101F80005304109252048AE080934D048CE292E054
:101F9000A2CE0E94BE040E94CE0060E070E084E009
:101FA00094E00E945E0782EB92E09F938F93C4E0DF
:101FB000D4E0DF93CF9340DC4EDC109258031092B4
:101FC0005F0410925E041F921F9284EC92E09F9334
:101FD0008F93DF93CF9330DC8DB79EB70A960FB601
:101FE000F8949EBF0FBE8DBF25DDFECFABE0B0E005
:101FF000EBEFFFE01DC36C017B013A01FC0117828E
:102000001682838181FFF9C0CE0101964C01F60151
:10201000B380F701B3FC0591B3FE01917F0100236A
:1020200009F4E7C0053249F4B3FC0591B3FE019110
:102030007F01053211F010E017C0B601802F90E04B
:1020400093D353013501E3CF002309F4D2C0602FAD
:1020500070E083E491E036D3892B49F0F701B3FCBB
:102060000591B3FE01917F0117FFEECF04C003324B
:1020700039F00C3619F0011105C0BBC01068EECF65
:1020800010E1ECCF602F70E08CE391E01BD3892B43
:1020900041F05301F4E0AF0EB11CB6018FE390E0C4
:1020A00010C0033631F0033771F0033501F51160CC
:1020B0000AC0530182E0A80EB11CB601F301808171
:1020C000918152D3BFCF5301F2E0AF0EB11CF301A7
:1020D00060807180F30110FD859110FF81913F01B7
:1020E000882309F4AFCFB60190E03ED3F3CF043696
:1020F00011F0093621F5530117FF09C0F4E0AF0EC6
:10210000B11CF30160817181828193810AC0F2E088
:10211000AF0EB11CF30160817181072E000C880B9A
:10212000990B1F7E97FF08C09095809570956195DB
:102130007F4F8F4F9F4F10642AE030E030C0003750
:1021400091F040F40835A1F00F3609F052C028E0B4
:1021500030E011C0053719F0083731F04AC01F7E52
:102160002AE030E008C01061146220E130E003C0D2
:10217000146020E132E0530117FF09C0F4E0AF0E14
:10218000B11CF301608171818281938108C0F2E00A
:10219000AF0EB11CF3016081718180E090E0A40179
:1021A00038D3082F081916FF04C0B6018DE290E05D
:1021B000DBD214FF13C0FE01E00FF11D80818033DC
:1021C00069F0B60180E390E0CFD212FF07C0107231
:1021D000812F90E0B601885A9F4FC6D20150F4017A
:1021E000E00FF11D8081B60190E0BED20111F6CF63
:1021F00029CFF6018681978102C08FEF9FEF2B9642
:10220000EEE032C220FD09C0FC0123FD05C022FF23
:1022100002C07383628351834083089544FD17C0D5
:1022200046FD17C0AB01BC01DA01FB01AA0FBB1FC1
:10223000EE1FFF1F1094D1F74A0F5B1F6E1F7F1F09
:10224000CB01BA01660F771F881F991F09C033E0C1
:1022500001C034E0660F771F881F991F3150D1F7F6
:10226000620F711D811D911D08950F931F93CF93D0
:10227000DF938C01C8013AD2EC0197FD06C01AD257
:10228000892BC1F7B801CE01ABD2CE01DF91CF913E
:102290001F910F9108958F929F92AF92BF92EF92EC
:1022A000FF920F931F93CF93DF938C01D62F7A0168
:1022B000B22E1CD29C0133272B32310531F02D3246
:1022C000310559F48B2D8068B82ED15011F480E07F
:1022D00061C0C8010BD297FDFACFCB2DCD7F2B2D3E
:1022E0002073F9F48033E9F4AA24AA94AD0E09F41A
:1022F0003EC0C801FBD197FD3AC09C012F7D33271A
:102300002835310541F4C264D25089F1C801EED1BB
:1023100097FF07C02CC0B6FE02C0C26001C0C261F8
:10232000DA2D812C912C540120ED280F283078F0E3
:10233000C4FF03C0B80154D217C02A3040F0C6FF12
:10234000F9CF2F7D3FEE320F3630A0F727504C2FBC
:10235000C501B40163DF4B015C01C260D15051F093
:10236000C801C4D197FFE0CFC1FD04C0B0CF812C1C
:10237000912C5401C7FF08C0B094A094909480940D
:10238000811C911CA11CB11C2C2FB501A401C701FB
:1023900039DF81E0DF91CF911F910F91FF90EF9096
:1023A000BF90AF909F908F900895A0E0B0E0EAEDCD
:1023B000F1E13DC16C01EB015A01FC01178216826B
:1023C000512CF601F380FE01F3FC8591F3FE81911F
:1023D000182FEF01882309F4D4C090E06BD1892B2A
:1023E00019F0C60142DFEDCF153241F4FE01F3FCD6
:1023F0001591F3FE1191EF01153271F4C60176D1FA
:1024000097FDBDC0412F50E09C01332724173507AD
:10241000C1F2B601E5D1B5C01A3239F4F3FC159119
:10242000F3FE1191EF0101E001C000E0E12C20ED8D
:10243000210F2A3078F402606E2D70E080E090E089
:1024400040E2ECDEE62EFE01F3FC1591F3FE119165
:10245000EF01EDCF01FF03C0E11003C092C0EE24F5
:10246000EA94183619F01C3651F010C0FE01F3FC46
:102470001591F3FE1191EF01183641F408600460E4
:10248000FE01F3FC1591F3FE1191EF01112309F404
:1024900078C0612F70E083E591E014D1892B09F4B5
:1024A00070C000FD07C0F50180809180C5010296D3
:1024B0005C0102C0812C912C1E3649F4F601468144
:1024C000578160E070E0202FC4019CDE7ACF133684
:1024D000A1F401FD02C0EE24E394C60107D197FDEB
:1024E0004EC08114910429F0F4018083C401019647
:1024F0004C01EA94E110F1CF3EC0C601B6DE97FD73
:102500003EC01F3649F128F4143621F1193639F14D
:1025100025C0133771F01537E9F020C081149104FC
:1025200029F0F4016082C40101964C01EA94EE2086
:1025300059F0C601DBD03C0197FD06C0BBD0892B0A
:1025400069F3B601C3014CD181149104A1F0F401E7
:10255000108211C0006203C0006101C00064202F1E
:10256000A4016E2DC60197DE811105C0F60183819D
:10257000807329F406C000FD24CF539422CF552048
:1025800019F0852D90E002C08FEF9FEFCDB7DEB739
:10259000EFE069C0A1E21A2EAA1BBB1BFD010DC012
:1025A000AA1FBB1FEE1FFF1FA217B307E407F50703
:1025B00020F0A21BB30BE40BF50B661F771F881FDF
:1025C000991F1A9469F760957095809590959B0175
:1025D000AC01BD01CF010895052E97FB16F40094C0
:1025E0000FD057FD05D0D6DF07FC02D046F408C057
:1025F00050954095309521953F4F4F4F5F4F08952F
:1026000090958095709561957F4F8F4F9F4F08955E
:10261000EE0FFF1F0590F491E02D09943CD0B7FF19
:102620000895821B930B08952F923F924F925F92D1
:102630006F927F928F929F92AF92BF92CF92DF92D2
:10264000EF92FF920F931F93CF93DF93CDB7DEB737
:10265000CA1BDB0B0FB6F894DEBF0FBECDBF0994CB
:102660002A88398848885F846E847D848C849B8422
:10267000AA84B984C884DF80EE80FD800C811B8130
:10268000AA81B981CE0FD11D0FB6F894DEBF0FBE5F
:10269000CDBFED010895A29FB001B39FC001A39FDC
:1026A000700D811D1124911DB29F700D811D11248B
:1026B000911D089591110BC1803219F089508550F8
:1026C000D0F70895FC010590061621F00020D9F7F7
:1026D000C00108953197CF010895FB01DC0102C0CC
:1026E00001900D9241505040D8F70895CF93DF9359
:1026F000EC012B8120FF33C026FF0AC02F7B2B83E8
:102700008E819F8101969F838E838A8190E029C06C
:1027100022FF0FC0E881F9818081082E000C990BFF
:10272000009719F420622B831AC03196F983E8834D
:102730000EC0EA85FB85099597FF09C02B8101969C
:1027400011F080E201C080E1822B8B8308C02E81D2
:102750003F812F5F3F4F3F832E83992702C08FEF2A
:102760009FEFDF91CF9108950F931F93CF93DF9346
:10277000FB01238121FD03C08FEF9FEF2CC022FFBF
:1027800016C046815781248135814217530744F48E
:10279000A081B1819D012F5F3F4F318320838C93B6
:1027A000268137812F5F3F4F3783268314C08B01EB
:1027B000EC01FB010084F185E02D0995892BE1F600
:1027C000D80116968D919C911797019617969C9318
:1027D0008E931697CE01DF91CF911F910F9108959F
:1027E000FB01238120FF12C026FD10C08F3F3FEF69
:1027F000930761F082832F7D2064238326813781B4
:102800002150310937832683992708958FEF9FEF51
:102810000895FA01AA27283051F1203181F1E89476
:102820006F936E7F6E5F7F4F8F4F9F4FAF4FB1E0C3
:102830003ED0B4E03CD0670F781F891F9A1FA11DBE
:10284000680F791F8A1F911DA11D6A0F711D811DBF
:10285000911DA11D20D009F468943F912AE0269F84
:1028600011243019305D3193DEF6CF010895462FE3
:102870004770405D4193B3E00FD0C9F7F6CF462FC4
:102880004F70405D4A3318F0495D31FD405241932D
:1028900002D0A9F7EACFB4E0A695979587957795EA
:1028A0006795BA95C9F700976105710508959B0171
:1028B000AC010A2E06945795479537952795BA95FA
:1028C000C9F7620F731F841F951FA01D08959927D4
:0828D00088270895F894FFCF5A
:1028D80069646C650000015903C20301CD00000062
:1028E8006D61696E0016002802021C040507090BB9
:1028F800000D0E00000000001F0719072B07250711
:10290800290723071D0717072F07330003FF20FF99
:1029180000FF02286E756C6C290070696E6F732059
:10292800696E69636961646F73200A0D0047697293
:102938006120457371756564610A0D007361696E84
:10294800646F200A0D0047697261204469726569E5
:1029580074610A0D0046696D204769726F0A0D009F
:1029680053656C6563696F6E65206F20657374616C
:10297800646F20696E696369616C0A0D00496E694C
:1029880063696F20646F2070726F636573736F0A79
:102998000D00456E6368656E646F2E2E2E200A0D3D
:1029A8000053656E736F7220636865696F0A0D0066
:1029B8004769726F73204D6F6C686F0A0D00464946
:1029C8004D204D6F6C686F0A0D00496E6963696F21
:1029D800204C41564147454D0A0D004769726F73B7
:1029E800204C61766167656D0A0D004573706572EC
:1029F80061204C61766167656D0A0D0045737661EB
:102A08007A6961204C61766167656D200A0D004620
:102A1800696D204C61766167656D0A0D00496E69C4
:102A280063696F20456E78616775650A0D00456EAC
:102A380063686520456E78616775650A0D00526F99
:102A480064617220456E78616775650A0D0045738B
:102A580076617A696120456E78616775650A0D004F
:102A680046696D20456E78616775650A0D00496E87
:102A78006963696F2043656E747269667567610A78
:102A88000D00494E4943494F204DC3815155494E88
:0A2A9800410A0D002564200A0D001C
:00000001FF
