:10000000AEC00000C9C00000C7C00000C5C00000ED
:10001000C3C00000C1C00000BFC00000BDC00000E0
:10002000BBC00000B9C00000B7C00000F8C70000A6
:10003000B3C00000B1C00000BDC70000ADC00000EB
:10004000ABC00000A9C000000C946C080C94AD0873
:10005000A3C00000A1C000009FC000009DC0000020
:100060009BC0000099C000007A0BD909D909D909B1
:10007000D9097A0BD909D909D909D909D909390B6B
:10008000D909D909D909D909D909D60AD909D90962
:10009000750BD909D909D909D909D909D909D909B2
:1000A000D909D909D909C30A7A0BD909D909D909B2
:1000B000D9097A0BD909D909D909D909D909390B2B
:1000C000D909D909D9098D0AD909D60AD909D9096D
:1000D000750BD60B590A590A590A590AD60B590AEF
:1000E000590A590A590A590A380B590A590A590A18
:1000F000590A590AD50A590A590AF20B590A590AD2
:10010000590A590A590A590A590A590A590A590AD7
:10011000C30AD60B590A590A590A590AD60B590A61
:10012000590A590A590A590A380B590A590A590AD7
:100130008D0A590AD50A590A590AF20B45464765EC
:10014000666700202B2D2E30313233343536373868
:100150003968006364696E6F707375785800112494
:100160001FBECFEFD8E0DEBFCDBF11E0A0E0B1E011
:10017000EAE8F5E202C005900D92A43AB107D9F77A
:1001800023E0A4EAB1E001C01D92A134B207E1F777
:100190000E94320E0C94C31233CFFFCF22D15CD019
:1001A00074D3ABD340E860E171E083EB92E030D2EE
:1001B000FC019093A8028093A70291E09587909309
:1001C000D302789485E091E0A6C20F931F93CF935A
:1001D000DF938091AF029091B00201969093B002AC
:1001E0008093AF02A091A902B091AA0282E0A93A3D
:1001F000B80769F114968D919C9115970197159602
:100200009C938E931497892B11F509EA12E01696A8
:10021000ED91FC91179717961C921E921697CD910F
:10022000DC9111971B830A83D093AA02C093A90281
:1002300018968D919C9119970995A091A902B0915A
:10024000AA0214968D919C911597892B01F3DF9149
:10025000CF911F910F910895ECE9F2E089EA92E0C5
:1002600096878587908B87878FEF9FEF928B818B07
:10027000148A138A0895CF93DF93DC0119963C9377
:100280002E93189717965C934E931697E091A902B8
:10029000F091AA02248135812617370750F4621B9A
:1002A000730B0190F081E02D2481358126173707EB
:1002B000B0F31196FC93EE93C281D3811396DC9335
:1002C000CE931297B983A883B383A28315967C93A8
:1002D0006E93149784819581861B970B95838483F5
:1002E0008FEF9FEF9093AE028093AD02DF91CF919D
:1002F0000895CF93DF93FC01A081B18114962D91D5
:100300003C91159784819581820F931F15969C933C
:100310008E931497C281D381B983A883A081B181C0
:100320001396DC93CE931297178216828FEF9FEF6E
:100330009093AE028093AD02DF91CF910895CF9359
:10034000DF93DC011D968C911D97843099F170F537
:10035000882349F1833031F45096ED91FC91519707
:10036000118210828FEF9FEF51969C938E9350973E
:100370001D961C921D9714962C911497ECE9F2E0AF
:100380000190F081E02D94819217D0F71196FC93A3
:10039000EE93C281D3811396DC93CE931297B983E7
:1003A000A883B383A283DF91CF910895853089F02C
:1003B0008730C1F61296ED91FC9113978D919C9127
:1003C000119791838083CD91DC911197FB83EA8310
:1003D000C9CF5096ED91FC91519784818F5F8483B2
:1003E000E9CFECE9F2E0F183E083F383E283148266
:1003F000F087E783F287E1870895CF93DF93DC01ED
:100400001D961C921D9714962C911497ECE9F2E01E
:100410000190F081E02D94819217D0F71196FC9312
:10042000EE93C281D3811396DC93CE931297B98356
:10043000A883B383A283CD01DF91CF910895CF9399
:10044000DF93ECE9F2E063857485DB011D968C9304
:1004500080819181EC01A881B981B183A083139639
:10046000FC93EE9312979487838721E02D8752D2D5
:10047000DF91CF9108951F93CF93DF93CDB7DEB770
:100480002A970FB6F894DEBF0FBECDBF182F6F3F6F
:100490008FEF780711F12091A7023091A8024FE960
:1004A00051E0CE010196E7DE812FC9DF8F8198856B
:1004B000892B19F0CE0101961CDFE091A702F09183
:1004C000A802808991892A960FB6F894DEBF0FBEE4
:1004D000CDBFDF91CF911F910895812FB0DFEDCF78
:1004E000CF93DF93DC01C091A702D091A80251966F
:1004F0007C936E93509714962C9114978C8182174D
:10050000D8F01D961C921D97ECE9F2E00190F08165
:10051000E02D94819217D0F71196FC93EE93C2814F
:10052000D3811396DC93CE931297B983A883B383B8
:10053000A283DF91CF9108951D86ECE9F2E001904E
:10054000F081E02D94819817D0F7CD01F983E883ED
:10055000A281B381BB83AA83CD93DC93D383C2836F
:100560009093A8028093A70221E0FC012587BE0199
:10057000D1D1DF91CF910895A0919C02B0919D02BD
:10058000E091A702F091A80281E014962C91948149
:10059000921708F080E00895CF93DF93A091A7020F
:1005A000B091A80240919C0250919D02EA01E8811D
:1005B000F981F0939D02E0939C028CE992E0938391
:1005C00082835093A8024093A70281E08D871D96F5
:1005D0001C921D9714962C91149703C00190F081E2
:1005E000E02D94812917D0F31196FC93EE9382812C
:1005F000938113969C938E931297EC01B983A883F1
:10060000B383A283BD01CA0185D1DF91CF91089543
:10061000CF93DF93FC01448382E085871686438F66
:10062000128E118E108E81E0878774876387ACE904
:10063000B2E0B087A7831996CD91DC911A97D28743
:10064000C187F887EF831A96FC93EE931997CF0131
:100650004296938B828B0296958B848B978B868B9D
:10066000CF01DF91CF910895CF93DF93EC014C81BF
:100670005D81FA017C97CA01C197968385832F819A
:10068000DC0152962C935297288551962C935197C2
:10069000298550962C9350972A851F962C931F9747
:1006A00029EB34E053963C93539754962C938E81C8
:1006B00028813981848392E095871686838F128EF4
:1006C000118E108E81E0878734872387CCE9D2E0B2
:1006D000D087C78389859A8592878187DC011896A0
:1006E000FC93EE931797FA87E987EA012A97D98353
:1006F000C883DA0118970B2E11960C921197AC93C0
:100700000A2E1B2E13961C920E9211241297CF01C3
:10071000DF91CF910895CF93DF93F894A5DFEC019B
:1007200060E070E0DDDE7894CE01DF91CF91089536
:100730000F931F93CF93DF93C091A702D091A8028C
:10074000998B888B8E010E5E1F4F8A899B890817B3
:10075000190759F0FC01208131813B8B2A8B4DDE3A
:100760008A899B8980179107A9F78F8581110CC011
:10077000E985FA858F81988590878783AF81B885D1
:100780001A96FC93EE9319978FE0DF91CF911F910A
:100790000F9155CEF894CCCFCF93DF9361157105AF
:1007A00099F0E091A702F091A80291838083EC0177
:1007B000AA81BB81B383A283ED93FC93FB83EA837D
:1007C00084E0DF91CF9157CE8FEF9FEFDF91CF91F4
:1007D0000895CF93DF93FC0180819181E817F90799
:1007E00071F0EC01A881B981B183A0831396FC93C9
:1007F000EE931297798B688BDF91CF91FECDDF91CD
:10080000CF910895FC019183808393838283158225
:1008100014820895FC01908D692B608F85858A3044
:1008200059F08B3009F00895808968238613FBCF37
:10083000118A108ACF01E1CD80896823C9F7089514
:10084000EF92FF921F93CF93DF937C01162FFC0151
:10085000C081D1818C179D0791F08D81812B8D8373
:10086000112319F09E81892321F06C818A819B815B
:10087000D1DF0990D881C02DEC16FD0671F7DF910C
:10088000CF911F91FF90EF900895EFECF2E084EA92
:1008900091E09183808384E292E093838283089540
:1008A000F8949B0121503109719561957109E0918E
:1008B000CF02F091D0024E0F5F1F420F531F46230D
:1008C0005723820F931F68237923CA01860F971F2E
:1008D0002091D1023091D2022817390750F08E179B
:1008E0009F0738F09093D0028093CF02CA0178948A
:1008F000089580E090E078940895E4E2F2E080E5E5
:1009000094E09183808313821282158214828AE29A
:1009100092E078CF2F923F924F925F926F927F92A8
:100920008F929F92AF92BF92CF92DF92EF92FF92FF
:100930000F931F93CF93DF93FB010DB605820EB685
:100940000682FC0105800DBE06800EBEDF91CF91B0
:100950001F910F91FF90EF90DF90CF90BF90AF90DD
:100960009F908F907F906F905F904F903F902F90CF
:1009700008957894C201F10109950CCFE8D28DE376
:1009800091E0E6D24DD26ED257D400C03EC3AF92B2
:10099000BF92CF92DF92EF92FF920F931F93CF936C
:1009A000DF93EC016B018A018C819D81841795078F
:1009B00010F40C811D816C857D85E884F984E61A2C
:1009C000F70A0E151F0598F1E016F106D0F0A80100
:1009D000C6010E94C6118E819F819D878C878C8164
:1009E0009D81801B910B9D838C83C801DF91CF91EA
:1009F0001F910F91FF90EF90DF90CF90BF90AF903D
:100A00000895A701C6010E94C6115801AE18BF087B
:100A10006E817F81A501C6018E0D9F1D0E94C611AA
:100A20008E819F81A80EB91EBD86AC86D8CFA80145
:100A3000C6010E94C6118C859D85800F911F9D87E0
:100A40008C87CDCFAF92BF92CF92DF92EF92FF9281
:100A50000F931F93CF93DF93EC016B018A018C817D
:100A60009D818417950710F40C811D818A859B85D3
:100A7000E884F984E81AF90A0E151F0598F1E016C2
:100A8000F106D0F0A801B6010E94C6118E819F81A7
:100A90009B878A878C819D81801B910B9D838C8392
:100AA000C801DF91CF911F910F91FF90EF90DF90E0
:100AB000CF90BF90AF900895A701B6010E94C611D4
:100AC0005801AE18BF08B6016E0D7F1DA5018E81BD
:100AD0009F810E94C6118E819F81A80EB91EBB8680
:100AE000AA86D8CFA801B6010E94C6118A859B8527
:100AF000800F911F9B878A87CDCF0F931F93FC0197
:100B000091838083938382831582148277836683A3
:100B10007587648773876287640F751F7187608725
:100B200037872687118B008B1F910F910895FC0149
:100B3000A285B38584859585A817B907E1F08481DE
:100B40009581019695838483CD0101969387828751
:100B50006C9322853385808591852817390720F08D
:100B60008681978193878287CF0160E070E031DED4
:100B700080E090E0089584819581892B01F38FEFC7
:100B80009FEF08950F931F93CF93DF93EC018B0199
:100B9000F89405C0B801CE01FFDD97FD27C08C8118
:100BA0009D81892BB9F38C819D8101979D838C83D5
:100BB000EC85FD85CF0101969D878C871081288566
:100BC00039858217930720F08E819F819D878C87BE
:100BD000EE85FF85309711F0CE0109957894812F2D
:100BE00090E0DF91CF911F910F9108957894DF915C
:100BF000CF911F910F9108956F927F928F929F9244
:100C0000AF92BF92CF92DF92EF92FF920F931F931A
:100C1000CF93DF934C017B016A013901FC01A6846B
:100C2000B784F89400E010E0452B81F41BC0A114B8
:100C3000B10419F0C401F501099578940C0F1D1F3A
:100C4000EC0EFD1EF8940C151D0560F4A601B7010D
:100C5000C4019DDEEC01892B51F7B301C4019CDD79
:100C6000892B89F37894C801DF91CF911F910F915F
:100C7000FF90EF90DF90CF90BF90AF909F908F90BC
:100C80007F906F9008950F931F93FC019183808351
:100C900093838283558344837783668375876487D0
:100CA00073876287460F571F51874087378726878C
:100CB000118B008B1F910F910895FF920F931F933B
:100CC000CF93DF93EC01F62E8A01F89405C0B801AA
:100CD000CE0162DD97FD2AC08C819D81892BB9F3FD
:100CE0008C819D8101979D838C83EA85FB85CF0153
:100CF00001969B878A87F0822A853B85888599851E
:100D00002817390720F08E819F819B878A87EE857F
:100D1000FF85309711F0CE010995789480E090E03E
:100D2000DF91CF911F910F91FF9008957894DF91FB
:100D3000CF911F910F91FF900895CF93FC01A4854F
:100D4000B585828593858A179B07E1F0848195811B
:100D5000019695838483CD01019695878487CC91F4
:100D6000208531858217930740F4CF0160E070E061
:100D700030DD8C2F90E0CF91089586819781958703
:100D80008487F3CF84819581892B01F38FEF9FEFC7
:100D9000F2CF6F927F928F929F92AF92BF92CF923B
:100DA000DF92EF92FF920F931F93CF93DF934C014B
:100DB0007B016A013901FC01A684B784F89400E044
:100DC00010E0452B81F41BC0A114B10419F0C4013B
:100DD000F501099578940C0F1D1FEC0EFD1EF8947B
:100DE0000C151D0560F4A601B701C4012BDEEC0152
:100DF000892B51F7B301C401CFDC892B89F3789497
:100E0000C801DF91CF911F910F91FF90EF90DF907C
:100E1000CF90BF90AF909F908F907F906F900895EC
:100E200052C121E0FC0120831282118208950596AF
:100E3000E3CE2FEF3FEF0596DFCE4796AACF2FEFF9
:100E40003FEF4796A6CF05969DCE6FEF7FEF0596B5
:100E500099CE479632CF4FEF5FEF47962ECF80E087
:100E600090E00895B1C1EF92FF920F931F93CF933B
:100E7000DF93EC019B017A01FC0186E291E0819312
:100E80009193FB83EA8381E08C83BE01675D7F4F92
:100E90008E0140E150E0CE0105962FDEBE01675C79
:100EA0007F4F970140E150E0CE014796ECDEDF91A5
:100EB000CF911F910F91FF90EF900895CF93DF9303
:100EC000EC01F89488D182E08C837894DF91CF9103
:100ED00008951F93CF93DF93EC01162F89859A8590
:100EE000892B51F0612FCE01059621DE97FD0EC0B2
:100EF000DF91CF911F91089564E0CE010296A0DCAE
:100F0000612FCE01059613DE97FFF2CF60E0CE0190
:100F10000296DF91CF911F9193CC0F931F93CF93A4
:100F2000DF938C01479609DFEC0197FD06C0CE01E7
:100F3000DF91CF911F910F91089568E0C80102964B
:100F40007FDCCE01DF91CF911F910F91089508951D
:100F5000FC01808185B9818184B9828188B98381CE
:100F600087B984818BB985818AB90895FC014230A3
:100F7000C9F098F04530B1F0463021F48181682BFA
:100F8000618308954330E9F78181962F90958923F5
:100F900081838281682B62830895442319F0413054
:100FA00099F30895818160958623818382816823E6
:100FB000628308951F920F920FB60F9211242F9300
:100FC0003F934F935F936F937F938F939F93AF93D1
:100FD000BF93EF93FF9381E08093D302F6D81092F2
:100FE000D302CADA8111D8DAFF91EF91BF91AF91A4
:100FF0009F918F917F916F915F914F913F912F9131
:101000000F900FBE0F901F90189582E084BD85BD94
:101010009FE797BD16BC85BB80936E0008951F9215
:101020000F920FB60F9211242F933F934F935F931C
:101030006F937F938F939F93AF93BF93EF93FF93A0
:1010400081E08093D3028091DA029091DB020196D5
:101050009093DB028093DA022091D8023091D9027A
:1010600082179307B1F01092D30286DA811194DAD5
:10107000FF91EF91BF91AF919F918F917F916F9170
:101080005F914F913F912F910F900FBE0F901F9046
:1010900018951092DB021092DA028091D40284300B
:1010A00041F0E091DC02F091DD0284ED92E00995DF
:1010B000DACF92E09093D40280918100887F809370
:1010C000810096BBEECF84ED92E0ABCEE1ECF0E098
:1010D00080818062808308951F920F920FB60F92D5
:1010E00011242F933F934F935F936F937F938F932D
:1010F0009F93AF93BF93EF93FF9381E08093D302CD
:101100008091C000982F9C71D9F46091C6008EED3B
:1011100092E0DFDE1092D3022FDA81113DDAFF91E7
:10112000EF91BF91AF919F918F917F916F915F915F
:101130004F913F912F910F900FBE0F901F901895D8
:1011400083FD09C060E082FD606284FD606480EE22
:1011500092E076DBDACF60E8F6CF1F920F920FB6FF
:101160000F9211242F933F934F935F936F937F932D
:101170008F939F93AF93BF93EF93FF9381E08093FF
:10118000D3028EED92E0C9DE97FD18C08093C600B1
:101190001092D302F1D98111FFD9FF91EF91BF9144
:1011A000AF919F918F917F916F915F914F913F91FF
:1011B0002F910F900FBE0F901F9018958091C10036
:1011C0008F7D8093C100E4CF46E658E060E070E098
:1011D0008EED92E048CE6115710519F18E5D924059
:1011E00009F00895FB0180818093C40081818F7094
:1011F0008093C50082E08093C00088E98093C1009D
:1012000082818130B9F0A0F0823071F0843071F4C5
:101210008091C10084608093C10086E08093C20009
:1012200008956AE371E0DACF84E0F8CF86E0F6CF84
:1012300080E0F4CF82E0F2CF109269001DBA0895E9
:101240002F923F924F925F926F927F928F929F92D6
:10125000AF92BF92CF92DF92EF92FF920F931F93C4
:10126000CF93DF93CDB7DEB7A2970FB6F894DEBF6A
:101270000FBECDBF1C016B01588F4F8B1E8A1D8A7C
:101280009E012E5F3F4F3E872D87AE014F5F5F4F20
:10129000588B4F87241B350B38A32F8F21503109D2
:1012A0003AA329A3CE010C969A8B898B86010F5FF6
:1012B0001F4FD6016C916623B9F0653281F1D101DF
:1012C000ED91FC910680F781E02DC1010995ED8932
:1012D000FE893196FE8BED8B680186010F5F1F4FF3
:1012E000D6016C916111E9CF8D899E89A2960FB6C6
:1012F000F894DEBF0FBECDBFDF91CF911F910F914C
:10130000FF90EF90DF90CF90BF90AF909F908F9025
:101310007F906F905F904F903F902F900895D601EF
:1013200011968C9111978D3209F4ECC01A8E80338E
:1013300009F4E1C020E2298FA8014F5F5F4F00E070
:1013400010E0EF89F88D13C0908132969801220F3A
:10135000331F000F111F000F111F000F111F020F6D
:10136000131F090F111D4F5F5F4FD6018C916A014A
:1013700090ED980F9A3050F38A3231F3F88FEF8B5B
:1013800020E030E08E3209F496C0982F9F7D9C3487
:1013900009F47EC0AFEBA80F91E0AA3108F090E00D
:1013A000482F50E0FA01E454F109E533F10508F45F
:1013B000B1C08983EF8DF8A189A09AA0AE014F5FDB
:1013C0005F4F7A015801AE1ABF0AB7FCD9C05A8DD7
:1013D00051115BC0002711270A191B0909F45BC1D1
:1013E000D7018C918D3209F45FC1798CD101ED91D7
:1013F000FC910680F781E02D672DC10109950F5FF3
:101400001F4FA1F72D893E892F5F3F4F81E090E06C
:101410008A199B09A901481B590B5E8B4D8B97FCC0
:1014200045CFA12CB12C8401F70161917F01D1013D
:10143000ED91FC910680F781E02DC10109950150E5
:10144000110990F78D899E89019697FC2AC1F401B4
:10145000E80FF91FFE8BED8BA114B10409F426CF20
:101460008501F98CD101ED91FC910680F781E02D89
:101470006F2DC101099501501109A1F7ED89FE8970
:10148000EA0DFB1DFE8BED8B11CF97FECCCFE4CF89
:10149000D6014C91442309F48CCFFFEFCF1ADF0A19
:1014A000842F90E0FC01E454F109E533F10508F4E0
:1014B000F5C0842F7ECFDF010FC09C911296A90149
:1014C000440F551F220F331F220F331F220F331FCC
:1014D000240F351F290F311DEFEFCE1ADE0AF6015A
:1014E0003197808190ED980F9A3048F38A3229F332
:1014F000B88FAF8B4ACFF80181810F5F1F4FF0E3A8
:10150000F98F1ACF86010E5F1F4F12968C91B1E0B2
:10151000BA8F0DCFEC5CFF4FE9C68F89988D02968C
:10152000AF89B88DED90FC90E114F10409F46AC123
:10153000F7012115310509F4D1C04081442309F494
:1015400066C121503109F701319605C0215031099A
:1015500008F44DC1FB01BF016F5F7F4F4081411116
:10156000F5CFEE19FF094F0121E0821A9108988FFB
:101570008F8B30E2398F5801AE1ABF0AB7FE27CFE2
:10158000A12CB12C24CFAF89B88D8C918983EF8D9C
:10159000F8A189A09AA01296B88FAF8BB0E2B98F4C
:1015A0009E012F5F3F4F79010DCF91E04AE050E05F
:1015B00060E070E0911164C0EF89F88D80809180C7
:1015C000A12CB12C3296F88FEF8B240135019E01AE
:1015D000245F3F4F3C8B2B8B1C8F0B8F7A018B0131
:1015E000DE8ECD8EC501B401A801970163D69B01A3
:1015F000205D3F4F2A33310514F0295F3F4FD22E33
:10160000AB89BC892E93BC8BAB8BC501B401A801FF
:10161000970150D649015A01C301B201A8019701AF
:1016200049D629013A01232B242B252BD9F60B8DE2
:101630001C8DFD2CCD8CDE8C89899A89EB89FC89E7
:101640008E1B9F0BDE01119631969D01280F391FCD
:1016500001C0F190FD92A217B307D9F74C01F1E058
:101660008F1A9108FC019E012F5F3F4F7901AACE8E
:1016700091E048E050E060E070E0992309F49CCFED
:10168000AF89B88D8D909D90AD90BC9013971496B6
:10169000B88FAF8B9ACF97FEC4CE08CEE759FF4FD5
:1016A00025C6812C912CD3CEB98DB03309F09DCEB7
:1016B000EFEFEE1AFE0AD101ED91FC910680F78161
:1016C000E02D6DE2C1010995ED89FE893196FE8B11
:1016D000ED8BF1E08F1A9108798C88CE208122233E
:1016E00009F495C02EEF3FE72ECF40E150E060E0D7
:1016F00070E060CFAA3108F459C0EF89F88D80807E
:101700009180092C000CAA08BB083296F88FEF8B49
:10171000B7FC58C0AE014F5F5F4F5C8F4B8F8B8D16
:101720009C8D0B969C8B8B8B240135011E8F0D8F0E
:101730007C01C501B4012AE030E040E050E0BAD5B8
:10174000605D7F4F162FD7016E937D0149015A01CD
:10175000C301B2012AE030E040E050E0ABD52901FE
:101760003A01232B242B252B21F7C701F12E0D8DB8
:101770001E8DEB8DFC8DDC0111962B893C89281B7D
:10178000390BC9018E0F9F1F01C0FD90F192E81720
:10179000F907D9F74F855889E41BF50B4F0151E044
:1017A000851A9108CE0101967C010CCEAF89B88DC7
:1017B0008D909D90AD90BC9013971496B88FAF8B81
:1017C000B7FEA8CF8DE28983B094A09490948094C2
:1017D000811C911CA11CB11C9E012E5F3F4F3C8FB0
:1017E0002B8F9DCF40E150E060E070E049CFEE19D3
:1017F000FF094F0151E0851A9108988F8F8B80E285
:10180000898FE0CD43E4E42E41E0F42E91CE5801DF
:1018100017FD0EC05A8D988F8F8B511106C08824EA
:101820008A94982C80E2898FD5CDF0E2F98F14CE7E
:10183000A12CB12CEFCFCF93DF93CDB7DEB7AE01A4
:10184000475F5F4F6F8178858D819E81F9DCDF91E5
:10185000CF91089546E060E283E290E087DB46E0C6
:1018600060E183E290E082DB46E068E083E290E0C2
:101870007DDB46E064E083E290E078DB46E062E016
:1018800083E290E073DB46E061E083E290E06EDBB0
:1018900046E061E086E290E069DB46E062E086E2F5
:1018A00090E064DB46E060E889E290E05FDB42E0E4
:1018B00064E089E290E05ADB42E068E089E290E08F
:1018C00055DB42E060E189E290E050DB42E060E21B
:1018D00089E290E04BDB42E060E489E290E046DBA5
:1018E0002D982C982B982A982998289840984198B8
:1018F0005F988AE491E09F938F938EED92E09F939F
:101900008F9399DF0F900F900F900F900895F89498
:101910006091AF027091B002789428E03DE3829F1D
:10192000F001839FF00D929FF00D1124AB0120E098
:10193000F8948091AF029091B00278942130A1F098
:1019400020913202253019F1409A9C01241B350B5D
:1019500028303D43E8F04098AC0121E0861B970B0E
:10196000E817F90728F7089530913202353079F0F9
:10197000419ADC01A41BB50BA830BD4318F0419877
:10198000AC0120E0861B970BE817F90788F608954D
:1019900020E0E4CFCF93DF9380913202833009F4CB
:1019A0008BC008F056C0813081F0823059F48091AC
:1019B0002703893009F495C08A3009F409C18830B9
:1019C00009F4F1C0DF91CF9108958DE591E09F93E7
:1019D0008F93CEEDD2E0DF93CF932DDF0F900F905A
:1019E0000F900F9080913203863009F4B7C0873092
:1019F00049F780913202853029F380913303909129
:101A0000340385DF82E08093320288E080932703ED
:101A100010922D0310922C0382E090E090932F03FC
:101A200080932E038CE090E09093310380933003F9
:101A3000F8948091AF029091B0027894909329032A
:101A40008093280390932B0380932A03DF91CF91F7
:101A50000895843021F0853009F0B4CFFFCF809114
:101A60003A038E3009F0AECF409AF8948091AF02DD
:101A70009091B002789490933C0380933B03209123
:101A80003D0330913E03821B930B60913F037091A5
:101A9000400348E05DE3649F9001659F300D749FB3
:101AA000300D11242817390708F08CCF4098109278
:101AB0003202DF91CF910895809135038C3009F483
:101AC0009AC08D3009F4A2C08B3009F07BCF2C9ADC
:101AD0004C9B78CF2C988CE080933503DF91CF918D
:101AE0000895F8948091AF029091B0027894909309
:101AF00029038093280320912A0330912B03821B12
:101B0000930B60912E0370912F0348E05DE3649F77
:101B10009001659F300D749F300D112428173907EF
:101B200008F050CFF8948091AF029091B002789471
:101B300090932B0380932A0380912C0390912D0383
:101B4000833091050CF483C010922D0310922C0366
:101B50008AE080932703DF91CF910895809132022C
:101B6000853009F42FCF2C9A8DE691E09F938F93C7
:101B7000DF93CF9360DE0F900F900F900F904C9BF0
:101B800021CF8CE791E09F938F93DF93CF9353DE28
:101B90002C9887E0809332030F900F900F900F9056
:101BA000DF91CF9108958091300390913103AFDEA2
:101BB000F8948091AF029091B002789490932B03A7
:101BC00080932A0389E080932703DF91CF910895C2
:101BD0002D9A4B9BF7CE2D9883E0809332028BE0B9
:101BE000809335038FE090E0909337038093360322
:101BF000DF91CF910895809136039091370387DE6E
:101C00008DE080933503DF91CF9108952D9A4B9B02
:101C1000D9CE2D9884E0809332028EE080933A03EF
:101C2000F8948091AF029091B002789490933C0325
:101C300080933B0390933E0380933D0384E190E0C7
:101C40009093400380933F03DF91CF9108950196D5
:101C500090932D0380932C0388E080932703DF91DA
:101C6000CF9108950E94BE040E94CE0060E070E013
:101C70008EED92E023D98BE891E09F938F93CEED88
:101C8000D2E0DF93CF93D7DDE5DD81E080933202B0
:101C900096E0909332032AE030E0309334032093AF
:101CA00033031F928F938DE991E09F938F93DF937E
:101CB000CF93C1DD8DB79EB70A960FB6F8949EBF3D
:101CC0000FBE8DBF67DEFECFABE0B0E0E9E6FEE021
:101CD00017C36C017B013A01FC01178216828381D4
:101CE00081FFF9C0CE0101964C01F601B380F701E6
:101CF000B3FC0591B3FE01917F01002309F4E7C015
:101D0000053249F4B3FC0591B3FE01917F01053220
:101D100011F010E017C0B601802F90E07ED3530180
:101D20003501E3CF002309F4D2C0602F70E083E4D3
:101D300091E021D3892B49F0F701B3FC0591B3FE63
:101D400001917F0117FFEECF04C0033239F00C364A
:101D500019F0011105C0BBC01068EECF10E1ECCF47
:101D6000602F70E08CE391E006D3892B41F05301A2
:101D7000F4E0AF0EB11CB6018FE390E010C0033663
:101D800031F0033771F0033501F511600AC05301DA
:101D900082E0A80EB11CB601F301808191813DD390
:101DA000BFCF5301F2E0AF0EB11CF3016080718030
:101DB000F30110FD859110FF81913F01882309F403
:101DC000AFCFB60190E029D3F3CF043611F0093636
:101DD00021F5530117FF09C0F4E0AF0EB11CF30168
:101DE00060817181828193810AC0F2E0AF0EB11CE3
:101DF000F30160817181072E000C880B990B1F7E07
:101E000097FF08C090958095709561957F4F8F4F93
:101E10009F4F10642AE030E030C0003791F040F46A
:101E20000835A1F00F3609F052C028E030E011C0AB
:101E3000053719F0083731F04AC01F7E2AE030E03C
:101E400008C01061146220E130E003C0146020E19A
:101E500032E0530117FF09C0F4E0AF0EB11CF301EB
:101E6000608171818281938108C0F2E0AF0EB11C64
:101E7000F3016081718180E090E0A40123D3082FF9
:101E8000081916FF04C0B6018DE290E0C6D214FF17
:101E900013C0FE01E00FF11D8081803369F0B601AF
:101EA00080E390E0BAD212FF07C01072812F90E059
:101EB000B601885A9F4FB1D20150F401E00FF11DD5
:101EC0008081B60190E0A9D20111F6CF29CFF601A9
:101ED0008681978102C08FEF9FEF2B96EEE02CC298
:101EE00020FD09C0FC0123FD05C022FF02C0738351
:101EF000628351834083089544FD17C046FD17C097
:101F0000AB01BC01DA01FB01AA0FBB1FEE1FFF1FD3
:101F10001094D1F74A0F5B1F6E1F7F1FCB01BA01D0
:101F2000660F771F881F991F09C033E001C034E096
:101F3000660F771F881F991F3150D1F7620F711DEF
:101F4000811D911D08950F931F93CF93DF938C01F3
:101F5000C80125D2EC0197FD06C005D2892BC1F737
:101F6000B801CE0196D2CE01DF91CF911F910F9192
:101F700008958F929F92AF92BF92EF92FF920F932C
:101F80001F93CF93DF938C01D62F7A01B22E07D205
:101F90009C0133272B32310531F02D32310559F4B4
:101FA0008B2D8068B82ED15011F480E061C0C8013B
:101FB000F6D197FDFACFCB2DCD7F2B2D2073F9F4E1
:101FC0008033E9F4AA24AA94AD0E09F43EC0C801F6
:101FD000E6D197FD3AC09C012F7D33272835310586
:101FE00041F4C264D25089F1C801D9D197FF07C02A
:101FF0002CC0B6FE02C0C26001C0C261DA2D812CC5
:10200000912C540120ED280F283078F0C4FF03C034
:10201000B8013FD217C02A3040F0C6FFF9CF2F7D5C
:102020003FEE320F3630A0F727504C2FC501B401D8
:1020300063DF4B015C01C260D15051F0C801AFD1E8
:1020400097FFE0CFC1FD04C0B0CF812C912C54018B
:10205000C7FF08C0B094A09490948094811C911CF8
:10206000A11CB11C2C2FB501A401C70139DF81E0EF
:10207000DF91CF911F910F91FF90EF90BF90AF90A4
:102080009F908F900895A0E0B0E0E8E4F0E137C1C0
:102090006C01EB015A01FC0117821682512CF601EA
:1020A000F380FE01F3FC8591F3FE8191182FEF017F
:1020B000882309F4D4C090E056D1892B19F0C601C9
:1020C00042DFEDCF153241F4FE01F3FC1591F3FE32
:1020D0001191EF01153271F4C60161D197FDBDC0B8
:1020E000412F50E09C01332724173507C1F2B60178
:1020F000D0D1B5C01A3239F4F3FC1591F3FE119129
:10210000EF0101E001C000E0E12C20ED210F2A30B9
:1021100078F402606E2D70E080E090E040E2ECDE4A
:10212000E62EFE01F3FC1591F3FE1191EF01EDCFC8
:1021300001FF03C0E11003C092C0EE24EA941836F8
:1021400019F01C3651F010C0FE01F3FC1591F3FE9E
:102150001191EF01183641F408600460FE01F3FCB0
:102160001591F3FE1191EF01112309F478C0612F4D
:1021700070E083E591E0FFD0892B09F470C000FD89
:1021800007C0F50180809180C50102965C0102C004
:10219000812C912C1E3649F4F6014681578160E06E
:1021A00070E0202FC4019CDE7ACF1336A1F401FD2C
:1021B00002C0EE24E394C601F2D097FD4EC0811414
:1021C000910429F0F4018083C40101964C01EA9442
:1021D000E110F1CF3EC0C601B6DE97FD3EC01F360E
:1021E00049F128F4143621F1193639F125C0133795
:1021F00071F01537E9F020C08114910429F0F40141
:102200006082C40101964C01EA94EE2059F0C601A7
:10221000C6D03C0197FD06C0A6D0892B69F3B60154
:10222000C30137D181149104A1F0F401108211C0CF
:10223000006203C0006101C00064202FA4016E2D64
:10224000C60197DE811105C0F6018381807329F4F0
:1022500006C000FD24CF539422CF552019F0852DC0
:1022600090E002C08FEF9FEFCDB7DEB7EFE063C025
:10227000A1E21A2EAA1BBB1BFD010DC0AA1FBB1F8A
:10228000EE1FFF1FA217B307E407F50720F0A21BFC
:10229000B30BE40BF50B661F771F881F991F1A9469
:1022A00069F760957095809590959B01AC01BD0193
:1022B000CF010895052E97FB16F400940FD057FD1B
:1022C00005D0D6DF07FC02D046F408C050954095F3
:1022D000309521953F4F4F4F5F4F089590958095D2
:1022E000709561957F4F8F4F9F4F0895EE0FFF1FA1
:1022F0000590F491E02D09942F923F924F925F92B6
:102300006F927F928F929F92AF92BF92CF92DF9205
:10231000EF92FF920F931F93CF93DF93CDB7DEB76A
:10232000CA1BDB0B0FB6F894DEBF0FBECDBF0994FE
:102330002A88398848885F846E847D848C849B8455
:10234000AA84B984C884DF80EE80FD800C811B8163
:10235000AA81B981CE0FD11D0FB6F894DEBF0FBE92
:10236000CDBFED01089591110BC1803219F0895054
:102370008550D0F70895FC010590061621F0002045
:10238000D9F7C00108953197CF010895FB01DC0111
:1023900002C001900D9241505040D8F70895CF935C
:1023A000DF93EC012B8120FF33C026FF0AC02F7B77
:1023B0002B838E819F8101969F838E838A8190E0FB
:1023C00029C022FF0FC0E881F9818081082E000C0E
:1023D000990B009719F420622B831AC03196F98368
:1023E000E8830EC0EA85FB85099597FF09C02B811C
:1023F000019611F080E201C080E1822B8B8308C03E
:102400002E813F812F5F3F4F3F832E83992702C04C
:102410008FEF9FEFDF91CF9108950F931F93CF938D
:10242000DF93FB01238121FD03C08FEF9FEF2CC0C1
:1024300022FF16C0468157812481358142175307F8
:1024400044F4A081B1819D012F5F3F4F31832083F0
:102450008C93268137812F5F3F4F3783268314C0AB
:102460008B01EC01FB010084F185E02D0995892B9E
:10247000E1F6D80116968D919C91179701961796C3
:102480009C938E931697CE01DF91CF911F910F9160
:102490000895FB01238120FF12C026FD10C08F3F4D
:1024A0003FEF930761F082832F7D20642383268191
:1024B00037812150310937832683992708958FEF7B
:1024C0009FEF0895FA01AA27283051F1203181F1B8
:1024D000E8946F936E7F6E5F7F4F8F4F9F4FAF4F2C
:1024E000B1E03ED0B4E03CD0670F781F891F9A1F3F
:1024F000A11D680F791F8A1F911DA11D6A0F711DF3
:10250000811D911DA11D20D009F468943F912AE0FE
:10251000269F11243019305D3193DEF6CF010895E6
:10252000462F4770405D4193B3E00FD0C9F7F6CF17
:10253000462F4F70405D4A3318F0495D31FD4052DF
:10254000419302D0A9F7EACFB4E0A6959795879575
:1025500077956795BA95C9F7009761057105089554
:102560009B01AC010A2E0694579547953795279500
:10257000BA95C9F7620F731F841F951FA01D089598
:0A258000992788270895F894FFCFEB
:10258A0069646C6500000133029C0201CD00000001
:10259A006D61696E0016002802021C040507090B0A
:1025AA00000D0E00000000001F0719072B07250762
:1025BA00290723071D0717072F07330003FF20FFEB
:1025CA0000FF02286E756C6C290070696E6F7320AB
:1025DA00696E69636961646F73200A0D00496E69E7
:1025EA0063696F204D4F4C484F200A0D00456E63BA
:1025FA0068656E646F2E2E2E200A0D0053656E7369
:10260A006F7220636865696F0A0D00494E49434934
:10261A004F204DC3815155494E410A0D0025642072
:04262A000A0D000095
:00000001FF
