:10000000AEC000000C940808C7C00000C5C00000C6
:10001000C3C00000C1C00000BFC00000BDC00000E0
:10002000BBC00000B9C00000B7C000000C94F408C9
:10003000B3C00000B1C000000C94BF08ADC0000008
:10004000ABC00000A9C000000C9451090C949209A7
:10005000A3C00000A1C000009FC000009DC0000020
:100060009BC0000099C00000640CBE0ABE0ABE0A14
:10007000BE0A640CBE0ABE0ABE0ABE0ABE0A220C32
:10008000BE0ABE0ABE0ABE0ABE0ABC0BBE0ABE0A31
:100090005F0CBE0ABE0ABE0ABE0ABE0ABE0ABE0A7D
:1000A000BE0ABE0ABE0AA90B640CBE0ABE0ABE0A7C
:1000B000BE0A640CBE0ABE0ABE0ABE0ABE0A220CF2
:1000C000BE0ABE0ABE0A730BBE0ABC0BBE0ABE0A3B
:1000D0005F0CC10C3E0B3E0B3E0B3E0BC10C3E0BAE
:1000E0003E0B3E0B3E0B3E0B210C3E0B3E0B3E0BE4
:1000F0003E0B3E0BBB0B3E0B3E0BDD0C3E0B3E0B9B
:100100003E0B3E0B3E0B3E0B3E0B3E0B3E0B3E0BA7
:10011000A90BC10C3E0B3E0B3E0B3E0BC10C3E0B24
:100120003E0B3E0B3E0B3E0B210C3E0B3E0B3E0BA3
:10013000730B3E0BBB0B3E0B3E0BDD0C4546476580
:10014000666700202B2D2E30313233343536373868
:100150003968006364696E6F707375785800112494
:100160001FBECFEFD8E0DEBFCDBF13E0A0E0B1E00F
:10017000EEE2FCE202C005900D92A439B107D9F776
:1001800025E0A4E9B3E001C01D92A433B207E1F772
:100190000E9475110C94151633CFFFCF22D15CD07D
:1001A0007AD3B1D340E860E171E083EA94E030D2E1
:1001B000FC01909398048093970491E09587909325
:1001C000C304789485E091E0A6C20F931F93CF9368
:1001D000DF9380919F049091A00401969093A004D6
:1001E00080939F04A0919904B0919A0484E0A93966
:1001F000B80769F114968D919C9115970197159602
:100200009C938E931497892B11F509E914E01696A7
:10021000ED91FC91179717961C921E921697CD910F
:10022000DC9111971B830A83D0939A04C09399049D
:1002300018968D919C9119970995A0919904B09168
:100240009A0414968D919C911597892B01F3DF9157
:10025000CF911F910F910895ECE8F4E089E994E0C3
:1002600096878587908B87878FEF9FEF928B818B07
:10027000148A138A0895CF93DF93DC0119963C9377
:100280002E93189717965C934E931697E0919904C6
:10029000F0919A04248135812617370750F4621BA8
:1002A000730B0190F081E02D2481358126173707EB
:1002B000B0F31196FC93EE93C281D3811396DC9335
:1002C000CE931297B983A883B383A28315967C93A8
:1002D0006E93149784819581861B970B95838483F5
:1002E0008FEF9FEF90939E0480939D04DF91CF91B9
:1002F0000895CF93DF93FC01A081B18114962D91D5
:100300003C91159784819581820F931F15969C933C
:100310008E931497C281D381B983A883A081B181C0
:100320001396DC93CE931297178216828FEF9FEF6E
:1003300090939E0480939D04DF91CF910895CF9375
:10034000DF93DC011D968C911D97843099F170F537
:10035000882349F1833031F45096ED91FC91519707
:10036000118210828FEF9FEF51969C938E9350973E
:100370001D961C921D9714962C911497ECE8F4E0AE
:100380000190F081E02D94819217D0F71196FC93A3
:10039000EE93C281D3811396DC93CE931297B983E7
:1003A000A883B383A283DF91CF910895853089F02C
:1003B0008730C1F61296ED91FC9113978D919C9127
:1003C000119791838083CD91DC911197FB83EA8310
:1003D000C9CF5096ED91FC91519784818F5F8483B2
:1003E000E9CFECE8F4E0F183E083F383E283148265
:1003F000F087E783F287E1870895CF93DF93DC01ED
:100400001D961C921D9714962C911497ECE8F4E01D
:100410000190F081E02D94819217D0F71196FC9312
:10042000EE93C281D3811396DC93CE931297B98356
:10043000A883B383A283CD01DF91CF910895CF9399
:10044000DF93ECE8F4E063857485DB011D968C9303
:1004500080819181EC01A881B981B183A083139639
:10046000FC93EE9312979487838721E02D8758D2CF
:10047000DF91CF9108951F93CF93DF93CDB7DEB770
:100480002A970FB6F894DEBF0FBECDBF182F6F3F6F
:100490008FEF780711F120919704309198044FE97C
:1004A00051E0CE010196E7DE812FC9DF8F8198856B
:1004B000892B19F0CE0101961CDFE0919704F09191
:1004C0009804808991892A960FB6F894DEBF0FBEF2
:1004D000CDBFDF91CF911F910895812FB0DFEDCF78
:1004E000CF93DF93DC01C0919704D091980451968B
:1004F0007C936E93509714962C9114978C8182174D
:10050000D8F01D961C921D97ECE8F4E00190F08164
:10051000E02D94819217D0F71196FC93EE93C2814F
:10052000D3811396DC93CE931297B983A883B383B8
:10053000A283DF91CF9108951D86ECE8F4E001904D
:10054000F081E02D94819817D0F7CD01F983E883ED
:10055000A281B381BB83AA83CD93DC93D383C2836F
:10056000909398048093970421E0FC012587BE01B5
:10057000D7D1DF91CF910895A0918C04B0918D04D3
:10058000E0919704F091980481E014962C91948165
:10059000921708F080E00895CF93DF93A09197041D
:1005A000B091980440918C0450918D04EA01E88147
:1005B000F981F0938D04E0938C048CE894E09383AC
:1005C0008283509398044093970481E08D871D9611
:1005D0001C921D9714962C91149703C00190F081E2
:1005E000E02D94812917D0F31196FC93EE9382812C
:1005F000938113969C938E931297EC01B983A883F1
:10060000B383A283BD01CA018BD1DF91CF9108953D
:10061000CF93DF93FC01448382E085871686438F66
:10062000128E118E108E81E0878774876387ACE805
:10063000B4E0B087A7831996CD91DC911A97D28741
:10064000C187F887EF831A96FC93EE931997CF0131
:100650004296938B828B0296958B848B978B868B9D
:10066000CF01DF91CF910895CF93DF93EC014C81BF
:100670005D81FA017C97CA01C197968385832F819A
:10068000DC0152962C935297288551962C935197C2
:10069000298550962C9350972A851F962C931F9747
:1006A0002FEB34E053963C93539754962C938E81C2
:1006B00028813981848392E095871686838F128EF4
:1006C000118E108E81E0878734872387CCE8D4E0B1
:1006D000D087C78389859A8592878187DC011896A0
:1006E000FC93EE931797FA87E987EA012A97D98353
:1006F000C883DA0118970B2E11960C921197AC93C0
:100700000A2E1B2E13961C920E9211241297CF01C3
:10071000DF91CF910895CF93DF93F894A5DFEC019B
:1007200060E070E0DDDE7894CE01DF91CF91089536
:100730000F931F93CF93DF93C0919704D0919804A8
:10074000998B888B8E010E5E1F4F8A899B890817B3
:10075000190759F0FC01208131813B8B2A8B4DDE3A
:100760008A899B8980179107A9F78F8581110CC011
:10077000E985FA858F81988590878783AF81B885D1
:100780001A96FC93EE9319978FE0DF91CF911F910A
:100790000F9155CEF894CCCFF894BC0188E06BDE75
:1007A00078940895CF93DF936115710599F0E091E6
:1007B0009704F091980491838083EC01AA81BB8116
:1007C000B383A283ED93FC93FB83EA8384E0DF9100
:1007D000CF9151CE8FEF9FEFDF91CF910895CF93BF
:1007E000DF93FC0180819181E817F90771F0EC013A
:1007F000A881B981B183A0831396FC93EE931297DD
:10080000798B688BDF91CF91F8CDDF91CF910895EF
:10081000FC019183808393838283158214820895DF
:10082000FC01908D692B608F85858A3059F08B3063
:1008300009F00895808968238613FBCF118A108AF6
:10084000CF01DBCD80896823C9F70895EF92FF922D
:100850001F93CF93DF937C01162FFC01C081D181C0
:100860008C179D0791F08D81812B8D83112319F0B9
:100870009E81892321F06C818A819B81D1DF09903F
:10088000D881C02DEC16FD0671F7DF91CF911F9135
:10089000FF90EF900895EFEBF4E084E993E091830B
:1008A000808384E194E0938382830895F8949B018C
:1008B00021503109719561957109E091BF04F09162
:1008C000C0044E0F5F1F420F531F46235723820F52
:1008D000931F68237923CA01860F971F2091C104B3
:1008E0003091C2042817390750F08E179F0738F04F
:1008F0009093C0048093BF04CA017894089580E067
:1009000090E078940895E4E1F4E086E594E0918342
:10091000808313821282158214828AE194E078CF58
:100920002F923F924F925F926F927F928F929F92FF
:10093000AF92BF92CF92DF92EF92FF920F931F93ED
:10094000CF93DF93FB010DB605820EB60682FC0144
:1009500005800DBE06800EBEDF91CF911F910F91D5
:10096000FF90EF90DF90CF90BF90AF909F908F90CF
:100970007F906F905F904F903F902F900895789464
:10098000C201F101099506CF14D38DE391E0C5D3DF
:1009900079D29AD236D500C01DC4AF92BF92CF9201
:1009A000DF92EF92FF920F931F93CF93DF93EC01AF
:1009B0006B018A018C819D818417950710F40C814D
:1009C0001D816C857D85E884F984E61AF70A0E1589
:1009D0001F0598F1E016F106D0F0A801C6010E94AB
:1009E00018158E819F819D878C878C819D81801BAE
:1009F000910B9D838C83C801DF91CF911F910F9143
:100A0000FF90EF90DF90CF90BF90AF900895A70137
:100A1000C6010E9418155801AE18BF086E817F816B
:100A2000A501C6018E0D9F1D0E9418158E819F8104
:100A3000A80EB91EBD86AC86D8CFA801C6010E94FB
:100A400018158C859D85800F911F9D878C87CDCF34
:100A5000AF92BF92CF92DF92EF92FF920F931F93CC
:100A6000CF93DF93EC016B018A018C819D81841708
:100A7000950710F40C811D818A859B85E884F98493
:100A8000E81AF90A0E151F0598F1E016F106D0F0E4
:100A9000A801B6010E9418158E819F819B878A87C5
:100AA0008C819D81801B910B9D838C83C801DF917C
:100AB000CF911F910F91FF90EF90DF90CF90BF905B
:100AC000AF900895A701B6010E9418155801AE18FD
:100AD000BF08B6016E0D7F1DA5018E819F810E940A
:100AE00018158E819F81A80EB91EBB86AA86D8CF05
:100AF000A801B6010E9418158A859B85800F911F59
:100B00009B878A87CDCF0F931F93FC0191838083AE
:100B100093838283158214827783668375876487C3
:100B200073876287640F751F718760873787268791
:100B3000118B008B1F910F910895FC01A285B38545
:100B400084859585A817B907E1F084819581019680
:100B500095838483CD010196938782876C93228548
:100B60003385808591852817390720F08681978104
:100B700093878287CF0160E070E031DE80E090E013
:100B8000089584819581892B01F38FEF9FEF08955C
:100B90000F931F93CF93DF93EC018B01F89405C063
:100BA000B801CE01FFDD97FD27C08C819D81892B87
:100BB000B9F38C819D8101979D838C83EC85FD85A4
:100BC000CF0101969D878C871081288539858217F2
:100BD000930720F08E819F819D878C87EE85FF850E
:100BE000309711F0CE0109957894812F90E0DF9134
:100BF000CF911F910F9108957894DF91CF911F911C
:100C00000F9108956F927F928F929F92AF92BF92B1
:100C1000CF92DF92EF92FF920F931F93CF93DF93C8
:100C20004C017B016A013901FC01A684B784F89468
:100C300000E010E0452B81F41BC0A114B10419F0B1
:100C4000C401F501099578940C0F1D1FEC0EFD1ED3
:100C5000F8940C151D0560F4A601B701C4019DDED2
:100C6000EC01892B51F7B301C4019CDD892B89F379
:100C70007894C801DF91CF911F910F91FF90EF9071
:100C8000DF90CF90BF90AF909F908F907F906F90AC
:100C900008950F931F93FC01918380839383828334
:100CA00055834483778366837587648773876287F8
:100CB000460F571F5187408737872687118B008B38
:100CC0001F910F910895FF920F931F93CF93DF937E
:100CD000EC01F62E8A01F89405C0B801CE0162DD60
:100CE00097FD2AC08C819D81892BB9F38C819D81D0
:100CF00001979D838C83EA85FB85CF0101969B87B5
:100D00008A87F0822A853B85888599852817390747
:100D100020F08E819F819B878A87EE85FF853097A3
:100D200011F0CE010995789480E090E0DF91CF91A9
:100D30001F910F91FF9008957894DF91CF911F91AB
:100D40000F91FF900895CF93FC01A485B58582850E
:100D500093858A179B07E1F084819581019695839D
:100D60008483CD01019695878487CC912085318538
:100D70008217930740F4CF0160E070E030DD8C2FE4
:100D800090E0CF9108958681978195878487F3CFEE
:100D900084819581892B01F38FEF9FEFF2CFEF9242
:100DA000FF920F931F93CF93DF93EC01EE84FF84A8
:100DB0004FDE8C01892B31F0E114F10419F0CE01E2
:100DC000F7010995C801DF91CF911F910F91FF9015
:100DD000EF9008956F927F928F929F92AF92BF9201
:100DE000CF92DF92EF92FF920F931F93CF93DF93F7
:100DF0004C017B016A013901FC01A684B784F89497
:100E000000E010E0452B81F41BC0A114B10419F0DF
:100E1000C401F501099578940C0F1D1FEC0EFD1E01
:100E2000F8940C151D0560F4A601B701C40110DE8D
:100E3000EC01892B51F7B301C401B4DC892B89F390
:100E40007894C801DF91CF911F910F91FF90EF909F
:100E5000DF90CF90BF90AF909F908F907F906F90DA
:100E60000895CF93DF93EC01F8947A83698313D1CB
:100E700082E088837894DF91CF910895F894FED032
:100E80007894089505C221E0FC012083128211822A
:100E900008950596B7CE2FEF3FEF0596B3CE479650
:100EA00099CF2FEF3FEF479695CF059671CE6FEF15
:100EB0007FEF05966DCE479606CF4FEF5FEF4796D3
:100EC00002CF80E090E0089564C2EF92FF920F930A
:100ED0001F93CF93DF93EC019B017A01FC0186E223
:100EE00091E081939193FB83EA8381E08C83BE013F
:100EF000675D7F4F8E0140E150E0CE01059603DE35
:100F0000BE01675C7F4F970140E150E0CE014796FC
:100F1000C0DEDF91CF911F910F91FF90EF90089568
:100F2000CF93DF93EC01F8943BD282E08C837894EA
:100F3000DF91CF9108951F93CF93DF93EC01162F8C
:100F400089859A85892B51F0612FCE010596F5DDB3
:100F500097FD0EC0DF91CF911F91089564E0CE01FF
:100F6000029674DC612FCE010596E7DD97FFF2CF84
:100F700060E0CE010296DF91CF911F9167CC0F9375
:100F80001F93CF93DF938C014796DDDEEC0197FD35
:100F900006C0CE01DF91CF911F910F91089568E0B7
:100FA000C801029653DCCE01DF91CF911F910F91C2
:100FB00008950895892B81F480916900613069F06A
:100FC0006230A1F06330D9F08E7F80936900809108
:100FD00069008D7F80936900089581608093690026
:100FE0008091690082608093690008958E7F80936C
:100FF0006900809169008260809369000895816032
:1010000080936900809169008D7F809369000895C5
:101010001F920F920FB60F9211242F933F934F936D
:101020005F936F937F938F939F93AF93BF93EF9350
:10103000FF9381E08093C304E091C504F091C6045E
:101040000480F581E02D60E070E084EC94E0099587
:101050001092C30491DA81119FDAFF91EF91BF9151
:10106000AF919F918F917F916F915F914F913F9140
:101070002F910F900FBE0F901F901895672B09F0BE
:101080000895E89ADC011196ED91FC911297608128
:1010900080E090E08FCFEF92FF920F931F93CF935A
:1010A000DF937C01DC018C91813051F1F7012181CA
:1010B000328101E010E0C0E0D0E008C0209711F1DB
:1010C00006301105B1F00F5F1F4F2196FE01EE0FA4
:1010D000FF1FEC0FFD1FEE0FFF1FE20FF31F8081BC
:1010E00082FDECCF209761F7E898F70121813281EA
:1010F000EACFDF91CF911F910F91FF90EF9008956C
:101100007894D4CFE89AD7011196ED91FC9112977B
:10111000608180E090E04EDFE8CFFC01808185B9FE
:10112000818184B9828188B9838187B984818BB9AF
:1011300085818AB90895FC014230C9F098F04530A4
:10114000B1F0463021F48181682B618308954330EA
:10115000E9F78181962F9095892381838281682B7D
:1011600062830895442319F0413099F308958181F1
:1011700060958623818382816823628308951F920C
:101180000F920FB60F9211242F933F934F935F93BB
:101190006F937F938F939F93AF93BF93EF93FF933F
:1011A00081E08093C30411D81092C304E5D9811162
:1011B000F3D9FF91EF91BF91AF919F918F917F9163
:1011C0006F915F914F913F912F910F900FBE0F90B4
:1011D0001F90189582E084BD85BD9FE797BD16BC22
:1011E00085BB80936E0008951F920F920FB60F92E9
:1011F00011242F933F934F935F936F937F938F931C
:101200009F93AF93BF93EF93FF9381E08093C304C9
:101210008091CD049091CE0401969093CE0480935A
:10122000CD042091CB043091CC0482179307B1F008
:101230001092C304A1D98111AFD9FF91EF91BF9151
:10124000AF919F918F917F916F915F914F913F915E
:101250002F910F900FBE0F901F9018951092CE04F3
:101260001092CD048091C704843041F0E091CF0406
:10127000F091D00487EC94E00995DACF92E0909356
:10128000C70480918100887F8093810096BBEECF58
:1012900087EC94E0F8CDE1ECF0E08081806280831F
:1012A00008951F920F920FB60F9211242F933F9320
:1012B0004F935F936F937F938F939F93AF93BF935E
:1012C000EF93FF9381E08093C3048091C000982F37
:1012D0009C71D9F46091C60081ED94E02CDE1092EF
:1012E000C3044AD9811158D9FF91EF91BF91AF91B1
:1012F0009F918F917F916F915F914F913F912F912E
:101300000F900FBE0F901F90189583FD09C060E0ED
:1013100082FD606284FD606483ED94E097DADACF49
:1013200060E8F6CF1F920F920FB60F9211242F9301
:101330003F934F935F936F937F938F939F93AF935D
:10134000BF93EF93FF9381E08093C30481ED94E01A
:1013500016DE97FD18C08093C6001092C3040CD906
:1013600081111AD9FF91EF91BF91AF919F918F9108
:101370007F916F915F914F913F912F910F900FBE91
:101380000F901F9018958091C1008F7D8093C100B0
:10139000E4CF4BE459E060E070E081ED94E095CD5E
:1013A0006115710519F1815D944009F00895FB0103
:1013B00080818093C40081818F708093C50082E01A
:1013C0008093C00088E98093C10082818130B9F0A8
:1013D000A0F0823071F0843071F48091C10084609B
:1013E0008093C10086E08093C20008956AE371E0B3
:1013F000DACF84E0F8CF86E0F6CF80E0F4CF82E069
:10140000F2CF109269001DBA08952F923F924F9229
:101410005F926F927F928F929F92AF92BF92CF9284
:10142000DF92EF92FF920F931F93CF93DF93CDB78D
:10143000DEB7A2970FB6F894DEBF0FBECDBF1C017A
:101440006B01588F4F8B1E8A1D8A9E012E5F3F4F66
:101450003E872D87AE014F5F5F4F588B4F87241B10
:10146000350B38A32F8F215031093AA329A3CE0180
:101470000C969A8B898B86010F5F1F4FD6016C915A
:101480006623B9F0653281F1D101ED91FC910680BE
:10149000F781E02DC1010995ED89FE893196FE8B1A
:1014A000ED8B680186010F5F1F4FD6016C916111B2
:1014B000E9CF8D899E89A2960FB6F894DEBF0FBE44
:1014C000CDBFDF91CF911F910F91FF90EF90DF90F3
:1014D000CF90BF90AF909F908F907F906F905F90D4
:1014E0004F903F902F900895D60111968C911197AF
:1014F0008D3209F4ECC01A8E803309F4E1C020E289
:10150000298FA8014F5F5F4F00E010E0EF89F88D51
:1015100013C0908132969801220F331F000F111FC4
:10152000000F111F000F111F020F131F090F111DB4
:101530004F5F5F4FD6018C916A0190ED980F9A3002
:1015400050F38A3231F3F88FEF8B20E030E08E32A7
:1015500009F496C0982F9F7D9C3409F47EC0AFEBB0
:10156000A80F91E0AA3108F090E0482F50E0FA016E
:10157000E454F109E533F10508F4B1C08983EF8D36
:10158000F8A189A09AA0AE014F5F5F4F7A01580180
:10159000AE1ABF0AB7FCDAC05A8D51115BC00027E2
:1015A00011270A191B0909F45FC1D7018C918D32EB
:1015B00009F464C1798CD101ED91FC910680F78129
:1015C000E02D672DC10109950F5F1F4FA1F72D89F0
:1015D0003E892F5F3F4F81E090E08A199B09A90166
:1015E000481B590B5E8B4D8B97FC45CFA12CB12C22
:1015F0008401F70161917F01D101ED91FC91068099
:10160000F781E02DC10109950150110990F78D89ED
:101610009E89019697FC2FC1F401E80FF91FFE8BFC
:10162000ED8BA114B10409F426CF8501F98CD10109
:10163000ED91FC910680F781E02D6F2DC101099598
:1016400001501109A1F7ED89FE89EA0DFB1DFE8B02
:10165000ED8B11CF97FECCCFE4CFD6014C91442334
:1016600009F48CCFFFEFCF1ADF0A842F90E0FC0142
:10167000E454F109E533F10508F4F9C0842F7ECF75
:10168000DF010FC09C911296A901440F551F220F34
:10169000331F220F331F220F331F240F351F290F33
:1016A000311DEFEFCE1ADE0AF6013197808190ED01
:1016B000980F9A3048F38A3229F3B88FAF8B4ACF0C
:1016C000F80181810F5F1F4FF0E3F98F1ACF860178
:1016D0000E5F1F4F12968C91B1E0BA8F0DCFEC5C6C
:1016E000FF4F0C94B3148F89988D0296AF89B88DF3
:1016F000ED90FC90E114F10409F46FC1F70121159C
:10170000310509F4D5C04081442309F46BC121504F
:101710003109F701319605C02150310908F452C151
:10172000FB01BF016F5F7F4F40814111F5CFEE1983
:10173000FF094F0121E0821A9108988F8F8B30E2C8
:10174000398F5801AE1ABF0AB7FE26CFA12CB12C93
:1017500023CFAF89B88D8C918983EF8DF8A189A0B3
:101760009AA01296B88FAF8BB0E2B98F9E012F5F0F
:101770003F4F79010CCF91E04AE050E060E070E02B
:10178000911167C0EF89F88D80809180A12CB12CD8
:101790003296F88FEF8B240135019E01245F3F4F75
:1017A0003C8B2B8B1C8F0B8F7A018B01DE8ECD8EA9
:1017B000C501B401A80197010E9497149B01205D07
:1017C0003F4F2A33310514F0295F3F4FD22EAB89AA
:1017D000BC892E93BC8BAB8BC501B401A8019701CA
:1017E0000E94971449015A01C301B201A80197014F
:1017F0000E94971429013A01232B242B252BC1F693
:101800000B8D1C8DFD2CCD8CDE8C89899A89EB8902
:10181000FC898E1B9F0BDE01119631969D01280FCE
:10182000391F01C0F190FD92A217B307D9F74C01FF
:10183000F1E08F1A9108FC019E012F5F3F4F790163
:10184000A6CE91E048E050E060E070E0992309F412
:1018500099CFAF89B88D8D909D90AD90BC90139726
:101860001496B88FAF8B97CF97FEC0CE04CEE759B2
:10187000FF4F0C94B314812C912CCECEB98DB03384
:1018800009F098CEEFEFEE1AFE0AD101ED91FC912E
:101890000680F781E02D6DE2C1010995ED89FE8991
:1018A0003196FE8BED8BF1E08F1A9108798C83CE07
:1018B0002081222309F496C02EEF3FE72ACF40E192
:1018C00050E060E070E05CCFAA3108F45AC0EF89C4
:1018D000F88D80809180092C000CAA08BB083296F4
:1018E000F88FEF8BB7FC59C0AE014F5F5F4F5C8F35
:1018F0004B8F8B8D9C8D0B969C8B8B8B2401350194
:101900001E8F0D8F7C01C501B4012AE030E040E05C
:1019100050E00E949714605D7F4F162FD7016E93A1
:101920007D0149015A01C301B2012AE030E040E0E3
:1019300050E0FDD729013A01232B242B252B19F741
:10194000C701F12E0D8D1E8DEB8DFC8DDC011196E6
:101950002B893C89281B390BC9018E0F9F1F01C0A1
:10196000FD90F192E817F907D9F74F855889E41BE4
:10197000F50B4F0151E0851A9108CE0101967C01CB
:1019800006CEAF89B88D8D909D90AD90BC90139789
:101990001496B88FAF8BB7FEA7CF8DE28983B09432
:1019A000A09490948094811C911CA11CB11C9E0158
:1019B0002E5F3F4F3C8F2B8F9CCF40E150E060E08B
:1019C00070E047CFEE19FF094F0151E0851A9108E9
:1019D000988F8F8B80E2898FDACD43E4E42E41E04B
:1019E000F42E8CCE580117FD0EC05A8D988F8F8B18
:1019F000511106C088248A94982C80E2898FCFCD1B
:101A0000F0E2F98F0ECEA12CB12CEFCFCF93DF9364
:101A1000CDB7DEB7AE01475F5F4F6F8178858D81AF
:101A20009E81F3DCDF91CF910895CF93DF93CDB703
:101A3000DEB763970FB6F894DEBF0FBECDBF83E16C
:101A4000EAE4F1E0DE01119601900D928A95E1F74A
:101A500042E150E0BE016F5F7F4F88EE94E09FD976
:101A600085E08093220463960FB6F894DEBF0FBE24
:101A7000CDBFDF91CF91089546E060E283E290E030
:101A80005ADB46E060E183E290E055DB46E068E047
:101A900083E290E050DB46E064E083E290E04BDBE1
:101AA00046E062E083E290E046DB46E061E083E20C
:101AB00090E041DB46E061E086E290E03CDB46E01E
:101AC00062E086E290E037DB46E060E889E290E0A1
:101AD00032DB42E064E089E290E02DDB42E068E046
:101AE00089E290E028DB42E060E189E290E023DBDC
:101AF00042E060E289E290E01EDB42E060E489E2DD
:101B000090E019DB2D982C982B982A9829982898E2
:101B1000409A419A5F988DE591E09F938F9381ED74
:101B200094E09F938F9372DF0F900F900F900F9020
:101B300008958F929F92AF92BF92CF92DF92EF92D1
:101B4000FF920F931F93CF93DF93F89480909F049D
:101B50009090A004789428E03DE3DC010AD7695115
:101B60007C4F8F4F9F4F28EE33E040E050E0BDD6D2
:101B70008901940180E099E8A92E91E0B92E41ED08
:101B8000E42E44E0F42E50E7C52E51E0D52EF89413
:101B9000C0919F04D091A00478948130B1F08091DD
:101BA0002204853089F14098CE01821B930B843842
:101BB0009E41B8F580E0C819D9090C171D0738F700
:101BC000409A419A8FE791E014C041989091220485
:101BD0009530D1F0AE01421B530B44385E4170F595
:101BE000C819D9090C171D0790F6409A419A88E93F
:101BF00091E09F938F9381ED94E09F938F9306DF05
:101C00000F900F900F900F90DF91CF911F910F9138
:101C1000FF90EF90DF90CF90BF90AF909F908F900C
:101C20000895DF92CF92FF92EF92F0DE409A0F90EC
:101C30000F900F900F909E0181E0BDCFBF92AF92A9
:101C4000FF92EF92E3DE419A0F900F900F900F906A
:101C50009E0180E0C5CF2F923F924F925F926F928C
:101C60007F928F929F92AF92BF92CF92DF92EF922C
:101C7000FF920F931F93CF93DF93809122048230C2
:101C800009F4DCC010F1843009F47AC008F4BEC055
:101C9000853041F44A9906C01092220410922C0516
:101CA00010922B05DF91CF911F910F91FF90EF9034
:101CB000DF90CF90BF90AF909F908F907F906F906C
:101CC0005F904F903F902F900895882309F4F1C0C2
:101CD000813041F7289A29982A982B985F9880910B
:101CE0002505863009F409C28730E1F689E792E0DC
:101CF0009F938F93C1EDD4E0DF93CF9387DE8091E4
:101D000026059091270515DF82E08093220488E064
:101D100080931A051092200510921F0588EE93E01B
:101D2000909322058093210580E699E09093240505
:101D300080932305F89480919F049091A004789457
:101D400090931C0580931B0590931E0580931D05A1
:101D500087E892E09F938F93DF93CF9357DE289885
:101D600083E992E09F938F93DF93CF934FDE8DB7FC
:101D70009EB70C960FB6F8949EBF0FBE8DBF92CF44
:101D8000289829982A982B9A5F9880912D058E3053
:101D900009F088CF4098F89480919F049091A00416
:101DA000789490932F0580932E05A0913205B091E1
:101DB00033052091300530913105EC01C21BD30B66
:101DC00028E03DE3D6D569517C4F8F4F9F4F28EED9
:101DD00033E040E050E089D52C173D0708F062CF92
:101DE000409A1092220410922C0510922B052B98E9
:101DF0008BE493E09F938F9381ED94E09F938F9377
:101E000005DE0F900F900F900F904CCF28982998D7
:101E10002A9A2B985F98809128058C3009F43AC251
:101E20008D3009F47FC18B3009F03CCF2C9A4C9B4C
:101E300039CF2C988CE08093280534CF2898299AA4
:101E40002A982B985F9880911A05893009F4D3C19C
:101E50008A3009F49FC1883009F024CF84EA92E0E7
:101E60009F938F93C1EDD4E0DF93CF93CFDD80912B
:101E70002305909124055DDEF89480919F04909154
:101E8000A004789490931E0580931D0589E08093AB
:101E90001A0584EB92E09F938F93DF93CF93B6DD87
:101EA0008DB79EB708960FB6F8949EBF0FBE8DBF34
:101EB000F9CE83EA91E09F938F93C1EDD4E0DF9355
:101EC000CF93A4DD80EC91E09F938F93DF93CF932A
:101ED0009DDD8DB79EB708960FB6F8949EBF0FBED6
:101EE0008DBF80EC682E81E0782E90EA492E9FE02D
:101EF000592E23E0222E312C00ED17E038EEA32ED0
:101F000033E0B32E40E6C42E49E0D42EEE24E39411
:101F1000F12C66ED862E61E0962E13C05F9A289A0A
:101F2000299A2A9A2B9A81E08093220486E0809352
:101F3000250510932705009326054E9987C04D99D6
:101F4000BEC080912B0590912C05009739F381300C
:101F5000910509F450C082309105A1F54E9BEFCF59
:101F600089E391E00E94CC034E99FECF84E08093F8
:101F700022048EE080932D05F89480919F04909127
:101F8000A004789490932F0580932E0590933105AB
:101F900080933005509233054092320530922C05E3
:101FA00020922B0587E092E09F938F93DF93CF934E
:101FB0002DDD2A9880912B0590912C050F900F9084
:101FC0000F900F90039709F0BACF4E9BB8CF89E3DB
:101FD00091E00E94CC034E99FECF7F926F92DF93E7
:101FE000CF9314DD10922C0510922B050F900F90BB
:101FF0000F900F90A4CF4E9BA2CF89E391E00E9457
:10200000CC034E99FECF83E0809322048BE0809333
:10201000280588EB9BE090932A058093290582E0B0
:1020200090E090932C0580932B058FEE91E09F9389
:102030008F93DF93CF93EADC299880912B059091C1
:102040002C050F900F900F900F9085CF89E391E0B2
:102050000E94CC034E99FECF82E08093220488E058
:1020600080931A051092200510921F05B092220548
:10207000A0922105D0922405C0922305F894809166
:102080009F049091A004789490931C0580931B0565
:1020900090931E0580931D05F0922C05E0922B0570
:1020A0009F928F92DF93CF93B1DC289880912B057C
:1020B00090912C050F900F900F900F9048CF89E3CF
:1020C00091E00E94CC0382E292E09F938F93C1ED56
:1020D000D4E0DF93CF939ADC80912B0590912C056F
:1020E0000F900F900F900F90009709F4C3C00297C4
:1020F00009F0D8CD80E592E07DCE2C9A4C9BD2CDD4
:102100008AE692E09F938F9381ED94E09F938F9363
:102110007DDC2C9887E0809325050F900F900F9021
:102120000F90C0CD2D9A4B9BBDCD2D9884E0809310
:1021300022048EE080932D05F89480919F04909165
:10214000A004789490932F0580932E0590933105E9
:102150008093300580EA9FE09093330580933205A9
:1021600089E293E09F938F93C1EDD4E0DF93CF9307
:102170004DDC2A9887E393E09F938F93DF93CF936F
:1021800045DC8DB79EB708960FB6F8949EBF0FBE7C
:102190008DBF88CD2D9A4B9B85CD2D9888ED92E0F3
:1021A0009F938F93C1EDD4E0DF93CF932FDC2998D9
:1021B00086EE92E09F938F93DF93CF9327DC83E0AB
:1021C000809322048BE08093280588EB9BE090931A
:1021D0002A058093290587EF92E09F938F93DF93E1
:1021E000CF9314DC8DB79EB70C960FB6F8949EBFB4
:1021F0000FBE8DBF57CDF89480919F049091A0049D
:10220000789490931C0580931B05A0912105B091B3
:10221000220520911D0530911E05EC01C21BD30B38
:1022200028E03DE3A6D369517C4F8F4F9F4F28EEA6
:1022300033E040E050E059D32C173D0708F032CD91
:10224000F89480919F049091A004789490931E0537
:1022500080931D0580911F05909120058330910585
:10226000D4F501969093200580931F0588E0809314
:102270001A0518CD87E392E09F938F93DF93CF9356
:10228000C5DB80912B0590912C050F900F900F903E
:102290000F902DCF87E093E09F938F93C1EDD4E013
:1022A000DF93CF93B3DB8091290590912A0541DC20
:1022B0008DE08093280587E193E09F938F93DF93D0
:1022C000CF93A4DB8DB79EB708960FB6F8949EBF48
:1022D0000FBE8DBFE7CC1092200510921F058AE03B
:1022E00080931A0585EC92E085CD0E94C4040E947B
:1022F000CE0060E070E081ED94E00E9490076FE610
:1023000073E084EC94E00E94310760E070E084ECBC
:1023100094E00E943E078DE593E09F938F9381EDBB
:1023200094E09F938F9372DBA7DB109222041092AC
:102330002C0510922B050F900F900F900F908BDCB7
:10234000FECFABE0B0E0E6EAF1E11DC36C017B013A
:102350003A01FC0117821682838181FFF9C0CE0108
:1023600001964C01F601B380F701B3FC0591B3FE71
:1023700001917F01002309F4E7C0053249F4B3FC61
:102380000591B3FE01917F01053211F010E017C0F5
:10239000B601802F90E093D353013501E3CF0023A2
:1023A00009F4D2C0602F70E083E491E036D3892B2A
:1023B00049F0F701B3FC0591B3FE01917F0117FFCE
:1023C000EECF04C0033239F00C3619F0011105C00C
:1023D000BBC01068EECF10E1ECCF602F70E08CE353
:1023E00091E01BD3892B41F05301F4E0AF0EB11CF7
:1023F000B6018FE390E010C0033631F0033771F07F
:10240000033501F511600AC0530182E0A80EB11C2A
:10241000B601F3018081918152D3BFCF5301F2E025
:10242000AF0EB11CF30160807180F30110FD859146
:1024300010FF81913F01882309F4AFCFB60190E0EE
:102440003ED3F3CF043611F0093621F5530117FFBF
:1024500009C0F4E0AF0EB11CF3016081718182818B
:1024600093810AC0F2E0AF0EB11CF301608171816B
:10247000072E000C880B990B1F7E97FF08C09095C4
:102480008095709561957F4F8F4F9F4F10642AE024
:1024900030E030C0003791F040F40835A1F00F363D
:1024A00009F052C028E030E011C0053719F00837B4
:1024B00031F04AC01F7E2AE030E008C0106114628B
:1024C00020E130E003C0146020E132E0530117FF47
:1024D00009C0F4E0AF0EB11CF3016081718182810B
:1024E000938108C0F2E0AF0EB11CF30160817181ED
:1024F00080E090E0A40138D3082F081916FF04C02B
:10250000B6018DE290E0DBD214FF13C0FE01E00FB4
:10251000F11D8081803369F0B60180E390E0CFD275
:1025200012FF07C01072812F90E0B601885A9F4FAA
:10253000C6D20150F401E00FF11D8081B60190E098
:10254000BED20111F6CF29CFF6018681978102C054
:102550008FEF9FEF2B96EEE032C220FD09C0FC0109
:1025600023FD05C022FF02C0738362835183408331
:10257000089544FD17C046FD17C0AB01BC01DA0148
:10258000FB01AA0FBB1FEE1FFF1F1094D1F74A0FCC
:102590005B1F6E1F7F1FCB01BA01660F771F881F5D
:1025A000991F09C033E001C034E0660F771F881F10
:1025B000991F3150D1F7620F711D811D911D089532
:1025C0000F931F93CF93DF938C01C8013AD2EC0194
:1025D00097FD06C01AD2892BC1F7B801CE01ABD244
:1025E000CE01DF91CF911F910F9108958F929F920D
:1025F000AF92BF92EF92FF920F931F93CF93DF930F
:102600008C01D62F7A01B22E1CD29C0133272B329B
:10261000310531F02D32310559F48B2D8068B82EFB
:10262000D15011F480E061C0C8010BD297FDFACF00
:10263000CB2DCD7F2B2D2073F9F48033E9F4AA2420
:10264000AA94AD0E09F43EC0C801FBD197FD3AC073
:102650009C012F7D33272835310541F4C264D250C7
:1026600089F1C801EED197FF07C02CC0B6FE02C0A9
:10267000C26001C0C261DA2D812C912C540120ED81
:10268000280F283078F0C4FF03C0B80154D217C017
:102690002A3040F0C6FFF9CF2F7D3FEE320F3630A3
:1026A000A0F727504C2FC501B40163DF4B015C013B
:1026B000C260D15051F0C801C4D197FFE0CFC1FD35
:1026C00004C0B0CF812C912C5401C7FF08C0B09436
:1026D000A09490948094811C911CA11CB11C2C2F5F
:1026E000B501A401C70139DF81E0DF91CF911F91CE
:1026F0000F91FF90EF90BF90AF909F908F900895B3
:10270000A0E0B0E0E5E8F3E13DC16C01EB015A0166
:10271000FC0117821682512CF601F380FE01F3FCB6
:102720008591F3FE8191182FEF01882309F4D4C01D
:1027300090E06BD1892B19F0C60142DFEDCF153245
:1027400041F4FE01F3FC1591F3FE1191EF011532F6
:1027500071F4C60176D197FDBDC0412F50E09C01B8
:10276000332724173507C1F2B601E5D1B5C01A32B7
:1027700039F4F3FC1591F3FE1191EF0101E001C072
:1027800000E0E12C20ED210F2A3078F402606E2D5C
:1027900070E080E090E040E2ECDEE62EFE01F3FC2B
:1027A0001591F3FE1191EF01EDCF01FF03C0E11090
:1027B00003C092C0EE24EA94183619F01C3651F08A
:1027C00010C0FE01F3FC1591F3FE1191EF011836D4
:1027D00041F408600460FE01F3FC1591F3FE1191D1
:1027E000EF01112309F478C0612F70E083E591E0D7
:1027F00014D1892B09F470C000FD07C0F501808059
:102800009180C50102965C0102C0812C912C1E367C
:1028100049F4F6014681578160E070E0202FC40141
:102820009CDE7ACF1336A1F401FD02C0EE24E394BE
:10283000C60107D197FD4EC08114910429F0F4011F
:102840008083C40101964C01EA94E110F1CF3EC0AF
:10285000C601B6DE97FD3EC01F3649F128F4143696
:1028600021F1193639F125C0133771F01537E9F028
:1028700020C08114910429F0F4016082C401019602
:102880004C01EA94EE2059F0C601DBD03C0197FDE3
:1028900006C0BBD0892B69F3B601C3014CD18114AA
:1028A0009104A1F0F401108211C0006203C0006124
:1028B00001C00064202FA4016E2DC60197DE811196
:1028C00005C0F6018381807329F406C000FD24CF82
:1028D000539422CF552019F0852D90E002C08FEF40
:1028E0009FEFCDB7DEB7EFE069C0A1E21A2EAA1BB9
:1028F000BB1BFD010DC0AA1FBB1FEE1FFF1FA217B0
:10290000B307E407F50720F0A21BB30BE40BF50BAC
:10291000661F771F881F991F1A9469F76095709535
:10292000809590959B01AC01BD01CF010895052EC6
:1029300097FB16F400940FD057FD05D0D6DF07FCA7
:1029400002D046F408C050954095309521953F4FF0
:102950004F4F5F4F089590958095709561957F4F8B
:102960008F4F9F4F0895EE0FFF1F0590F491E02DBC
:1029700009943CD0B7FF0895821B930B08952F92C2
:102980003F924F925F926F927F928F929F92AF92FF
:10299000BF92CF92DF92EF92FF920F931F93CF934C
:1029A000DF93CDB7DEB7CA1BDB0B0FB6F894DEBFE3
:1029B0000FBECDBF09942A88398848885F846E8409
:1029C0007D848C849B84AA84B984C884DF80EE8053
:1029D000FD800C811B81AA81B981CE0FD11D0FB65C
:1029E000F894DEBF0FBECDBFED010895A29FB001E8
:1029F000B39FC001A39F700D811D1124911DB29F33
:102A0000700D811D1124911D089591110BC180320B
:102A100019F089508550D0F70895FC0105900616ED
:102A200021F00020D9F7C00108953197CF01089512
:102A3000FB01DC0102C001900D9241505040D8F7DB
:102A40000895CF93DF93EC012B8120FF33C026FF45
:102A50000AC02F7B2B838E819F8101969F838E835B
:102A60008A8190E029C022FF0FC0E881F98180812E
:102A7000082E000C990B009719F420622B831AC0C2
:102A80003196F983E8830EC0EA85FB85099597FFA7
:102A900009C02B81019611F080E201C080E1822BF8
:102AA0008B8308C02E813F812F5F3F4F3F832E8352
:102AB000992702C08FEF9FEFDF91CF9108950F9379
:102AC0001F93CF93DF93FB01238121FD03C08FEF81
:102AD0009FEF2CC022FF16C046815781248135818B
:102AE0004217530744F4A081B1819D012F5F3F4FEE
:102AF000318320838C93268137812F5F3F4F37832B
:102B0000268314C08B01EC01FB010084F185E02DCC
:102B10000995892BE1F6D80116968D919C9117970E
:102B2000019617969C938E931697CE01DF91CF91C5
:102B30001F910F910895FB01238120FF12C026FDF4
:102B400010C08F3F3FEF930761F082832F7D206499
:102B500023832681378121503109378326839927A2
:102B600008958FEF9FEF0895FA01AA27283051F1B9
:102B7000203181F1E8946F936E7F6E5F7F4F8F4FAE
:102B80009F4FAF4FB1E03ED0B4E03CD0670F781F0D
:102B9000891F9A1FA11D680F791F8A1F911DA11DF2
:102BA0006A0F711D811D911DA11D20D009F468942B
:102BB0003F912AE0269F11243019305D3193DEF6D3
:102BC000CF010895462F4770405D4193B3E00FD089
:102BD000C9F7F6CF462F4F70405D4A3318F0495D74
:102BE00031FD4052419302D0A9F7EACFB4E0A69557
:102BF0009795879577956795BA95C9F70097610579
:102C0000710508959B01AC010A2E069457954795CE
:102C100037952795BA95C9F7620F731F841F951FC3
:0E2C2000A01D0895992788270895F894FFCFE6
:102C2E0069646C6500000123048C0401CD00000072
:102C3E006D61696E0016002802021C040507090B5F
:102C4E00000D0E000000000051074B075D075707EF
:102C5E005B0755074F0749076107330003FF20FF46
:102C6E0000FF02286E756C6C2900504F52544120A3
:102C7E00414245525441202121210A0D0070696EB6
:102C8E006F7320696E69636961646F73200A0D004A
:102C9E004769726120457371756564610A0D007331
:102CAE0061696E646F200A0D004769726120446984
:102CBE0072656974610A0D0046696D204769726F0D
:102CCE000A0D0053656C6563696F6E65206F206534
:102CDE00737461646F20696E696369616C0A0D00BB
:102CEE004D6F646F20696E696369616C3A204D6F38
:102CFE006C686F0A0D004D6F646F20696E696369B1
:102D0E00616C3A204C61766167656D200A0D004D4D
:102D1E006F646F20696E696369616C3A20456E78E5
:102D2E00616775650A0D004D6F646F20696E69638A
:102D3E0069616C3A2043656E747269667567610AE3
:102D4E000D00496E6963696F20646F2070726F6346
:102D5E006573736F0A0D00456E6368656E646F2050
:102D6E0070617261206F204D6F6C686F200A0D00CC
:102D7E00456E6368656E646F2070617261206F20AE
:102D8E00656E78616775650A0D0053656E736F72B7
:102D9E0020636865696F0A0D004769726F73204D75
:102DAE006F6C686F0A0D0046494D204D6F6C686F51
:102DBE000A0D00496E6963696F204C4156414745C3
:102DCE004D0A0D004769726F73204C61766167651D
:102DDE006D0A0D00457370657261204C61766167F6
:102DEE00656D0A0D00457376617A6961204C6176D6
:102DFE006167656D200A0D0046696D204C61766134
:102E0E0067656D0A0D00496E6963696F20456E78BE
:102E1E00616775650A0D00456E63686520456E78BD
:102E2E00616775650A0D00526F64617220456E7898
:102E3E00616775650A0D00457376617A6961204593
:102E4E006E78616775650A0D0046696D20456E786E
:102E5E00616775650A0D00496E6963696F20436588
:102E6E006E747269667567610A0D0046494D20449D
:102E7E004F2050524F434553534F0A0D00494E4970
:102E8E0043494F204DC3815155494E410A0D000112
:102E9E00000000150D000000000000000000000002
:102EAE000000000000000000000000000000000014
:042EBE000000000010
:00000001FF
