:10000000AEC00000C9C00000C7C00000C5C00000ED
:10001000C3C00000C1C00000BFC00000BDC00000E0
:10002000BBC00000B9C00000B7C00000FEC70000A0
:10003000B3C00000B1C00000C3C70000ADC00000E5
:10004000ABC00000A9C000000C9472080C94B30867
:10005000A3C00000A1C000009FC000009DC0000020
:100060009BC0000099C00000850BDF09DF09DF0994
:10007000DF09850BDF09DF09DF09DF09DF09430B32
:10008000DF09DF09DF09DF09DF09DD0ADF09DF0931
:10009000800BDF09DF09DF09DF09DF09DF09DF097D
:1000A000DF09DF09DF09CA0A850BDF09DF09DF097C
:1000B000DF09850BDF09DF09DF09DF09DF09430BF2
:1000C000DF09DF09DF09940ADF09DD0ADF09DF093B
:1000D000800BE10B5F0A5F0A5F0A5F0AE10B5F0AB0
:1000E0005F0A5F0A5F0A5F0A420B5F0A5F0A5F0AE4
:1000F0005F0A5F0ADC0A5F0A5F0AFD0B5F0A5F0A9C
:100100005F0A5F0A5F0A5F0A5F0A5F0A5F0A5F0AA7
:10011000CA0AE10B5F0A5F0A5F0A5F0AE10B5F0A26
:100120005F0A5F0A5F0A5F0A420B5F0A5F0A5F0AA3
:10013000940A5F0ADC0A5F0A5F0AFD0B45464765C1
:10014000666700202B2D2E30313233343536373868
:100150003968006364696E6F707375785800112494
:100160001FBECFEFD8E0DEBFCDBF13E0A0E0B1E00F
:10017000EAE1FAE202C005900D92A236B107D9F782
:1001800024E0A2E6B3E001C01D92AF3FB207E1F761
:100190000E946A100C940B1533CFFFCF22D15CD094
:1001A0007AD3B1D340E860E171E081E794E030D2E6
:1001B000FC01909366048093650491E09587909389
:1001C0009104789485E091E0A6C20F931F93CF939A
:1001D000DF9380916D0490916E04019690936E046C
:1001E00080936D04A0916704B091680484E0A73601
:1001F000B80769F114968D919C9115970197159602
:100200009C938E931497892B11F507E614E01696AC
:10021000ED91FC91179717961C921E921697CD910F
:10022000DC9111971B830A83D0936804C093670401
:1002300018968D919C9119970995A0916704B0919A
:10024000680414968D919C911597892B01F3DF9189
:10025000CF911F910F910895EAE5F4E087E694E0CD
:1002600096878587908B87878FEF9FEF928B818B07
:10027000148A138A0895CF93DF93DC0119963C9377
:100280002E93189717965C934E931697E0916704F8
:10029000F0916804248135812617370750F4621BDA
:1002A000730B0190F081E02D2481358126173707EB
:1002B000B0F31196FC93EE93C281D3811396DC9335
:1002C000CE931297B983A883B383A28315967C93A8
:1002D0006E93149784819581861B970B95838483F5
:1002E0008FEF9FEF90936C0480936B04DF91CF911D
:1002F0000895CF93DF93FC01A081B18114962D91D5
:100300003C91159784819581820F931F15969C933C
:100310008E931497C281D381B983A883A081B181C0
:100320001396DC93CE931297178216828FEF9FEF6E
:1003300090936C0480936B04DF91CF910895CF93D9
:10034000DF93DC011D968C911D97843099F170F537
:10035000882349F1833031F45096ED91FC91519707
:10036000118210828FEF9FEF51969C938E9350973E
:100370001D961C921D9714962C911497EAE5F4E0B3
:100380000190F081E02D94819217D0F71196FC93A3
:10039000EE93C281D3811396DC93CE931297B983E7
:1003A000A883B383A283DF91CF910895853089F02C
:1003B0008730C1F61296ED91FC9113978D919C9127
:1003C000119791838083CD91DC911197FB83EA8310
:1003D000C9CF5096ED91FC91519784818F5F8483B2
:1003E000E9CFEAE5F4E0F183E083F383E28314826A
:1003F000F087E783F287E1870895CF93DF93DC01ED
:100400001D961C921D9714962C911497EAE5F4E022
:100410000190F081E02D94819217D0F71196FC9312
:10042000EE93C281D3811396DC93CE931297B98356
:10043000A883B383A283CD01DF91CF910895CF9399
:10044000DF93EAE5F4E063857485DB011D968C9308
:1004500080819181EC01A881B981B183A083139639
:10046000FC93EE9312979487838721E02D8758D2CF
:10047000DF91CF9108951F93CF93DF93CDB7DEB770
:100480002A970FB6F894DEBF0FBECDBF182F6F3F6F
:100490008FEF780711F120916504309166044FE9E0
:1004A00051E0CE010196E7DE812FC9DF8F8198856B
:1004B000892B19F0CE0101961CDFE0916504F091C3
:1004C0006604808991892A960FB6F894DEBF0FBE24
:1004D000CDBFDF91CF911F910895812FB0DFEDCF78
:1004E000CF93DF93DC01C0916504D09166045196EF
:1004F0007C936E93509714962C9114978C8182174D
:10050000D8F01D961C921D97EAE5F4E00190F08169
:10051000E02D94819217D0F71196FC93EE93C2814F
:10052000D3811396DC93CE931297B983A883B383B8
:10053000A283DF91CF9108951D86EAE5F4E0019052
:10054000F081E02D94819817D0F7CD01F983E883ED
:10055000A281B381BB83AA83CD93DC93D383C2836F
:10056000909366048093650421E0FC012587BE0119
:10057000D7D1DF91CF910895A0915A04B0915B0437
:10058000E0916504F091660481E014962C919481C9
:10059000921708F080E00895CF93DF93A09165044F
:1005A000B091660440915A0450915B04EA01E881DD
:1005B000F981F0935B04E0935A048AE594E0938315
:1005C0008283509366044093650481E08D871D9675
:1005D0001C921D9714962C91149703C00190F081E2
:1005E000E02D94812917D0F31196FC93EE9382812C
:1005F000938113969C938E931297EC01B983A883F1
:10060000B383A283BD01CA018BD1DF91CF9108953D
:10061000CF93DF93FC01448382E085871686438F66
:10062000128E118E108E81E0878774876387AAE50A
:10063000B4E0B087A7831996CD91DC911A97D28741
:10064000C187F887EF831A96FC93EE931997CF0131
:100650004296938B828B0296958B848B978B868B9D
:10066000CF01DF91CF910895CF93DF93EC014C81BF
:100670005D81FA017C97CA01C197968385832F819A
:10068000DC0152962C935297288551962C935197C2
:10069000298550962C9350972A851F962C931F9747
:1006A0002FEB34E053963C93539754962C938E81C2
:1006B00028813981848392E095871686838F128EF4
:1006C000118E108E81E0878734872387CAE5D4E0B6
:1006D000D087C78389859A8592878187DC011896A0
:1006E000FC93EE931797FA87E987EA012A97D98353
:1006F000C883DA0118970B2E11960C921197AC93C0
:100700000A2E1B2E13961C920E9211241297CF01C3
:10071000DF91CF910895CF93DF93F894A5DFEC019B
:1007200060E070E0DDDE7894CE01DF91CF91089536
:100730000F931F93CF93DF93C0916504D09166040C
:10074000998B888B8E010E5E1F4F8A899B890817B3
:10075000190759F0FC01208131813B8B2A8B4DDE3A
:100760008A899B8980179107A9F78F8581110CC011
:10077000E985FA858F81988590878783AF81B885D1
:100780001A96FC93EE9319978FE0DF91CF911F910A
:100790000F9155CEF894CCCFF894BC0188E06BDE75
:1007A00078940895CF93DF936115710599F0E091E6
:1007B0006504F091660491838083EC01AA81BB817A
:1007C000B383A283ED93FC93FB83EA8384E0DF9100
:1007D000CF9151CE8FEF9FEFDF91CF910895CF93BF
:1007E000DF93FC0180819181E817F90771F0EC013A
:1007F000A881B981B183A0831396FC93EE931297DD
:10080000798B688BDF91CF91F8CDDF91CF910895EF
:10081000FC019183808393838283158214820895DF
:10082000FC01908D692B608F85858A3059F08B3063
:1008300009F00895808968238613FBCF118A108AF6
:10084000CF01DBCD80896823C9F70895EF92FF922D
:100850001F93CF93DF937C01162FFC01C081D181C0
:100860008C179D0791F08D81812B8D83112319F0B9
:100870009E81892321F06C818A819B81D1DF09903F
:10088000D881C02DEC16FD0671F7DF91CF911F9135
:10089000FF90EF900895EDE8F4E082E693E0918315
:1008A000808382EE93E0938382830895F8949B0182
:1008B00021503109719561957109E0918D04F09194
:1008C0008E044E0F5F1F420F531F46235723820F84
:1008D000931F68237923CA01860F971F20918F04E5
:1008E000309190042817390750F08E179F0738F081
:1008F00090938E0480938D04CA017894089580E0CB
:1009000090E078940895E2EEF3E086E594E0918338
:100910008083138212821582148288EE93E078CF4E
:100920002F923F924F925F926F927F928F929F92FF
:10093000AF92BF92CF92DF92EF92FF920F931F93ED
:10094000CF93DF93FB010DB605820EB60682FC0144
:1009500005800DBE06800EBEDF91CF911F910F91D5
:10096000FF90EF90DF90CF90BF90AF909F908F90CF
:100970007F906F905F904F903F902F900895789464
:10098000C201F101099506CFE8D28DE391E0E6D2EC
:100990004DD26ED257D400C03EC3AF92BF92CF9219
:1009A000DF92EF92FF920F931F93CF93DF93EC01AF
:1009B0006B018A018C819D818417950710F40C814D
:1009C0001D816C857D85E884F984E61AF70A0E1589
:1009D0001F0598F1E016F106D0F0A801C6010E94AB
:1009E0000E148E819F819D878C878C819D81801BB9
:1009F000910B9D838C83C801DF91CF911F910F9143
:100A0000FF90EF90DF90CF90BF90AF900895A70137
:100A1000C6010E940E145801AE18BF086E817F8176
:100A2000A501C6018E0D9F1D0E940E148E819F810F
:100A3000A80EB91EBD86AC86D8CFA801C6010E94FB
:100A40000E148C859D85800F911F9D878C87CDCF3F
:100A5000AF92BF92CF92DF92EF92FF920F931F93CC
:100A6000CF93DF93EC016B018A018C819D81841708
:100A7000950710F40C811D818A859B85E884F98493
:100A8000E81AF90A0E151F0598F1E016F106D0F0E4
:100A9000A801B6010E940E148E819F819B878A87D0
:100AA0008C819D81801B910B9D838C83C801DF917C
:100AB000CF911F910F91FF90EF90DF90CF90BF905B
:100AC000AF900895A701B6010E940E145801AE1808
:100AD000BF08B6016E0D7F1DA5018E819F810E940A
:100AE0000E148E819F81A80EB91EBB86AA86D8CF10
:100AF000A801B6010E940E148A859B85800F911F64
:100B00009B878A87CDCF0F931F93FC0191838083AE
:100B100093838283158214827783668375876487C3
:100B200073876287640F751F718760873787268791
:100B3000118B008B1F910F910895FC01A285B38545
:100B400084859585A817B907E1F084819581019680
:100B500095838483CD010196938782876C93228548
:100B60003385808591852817390720F08681978104
:100B700093878287CF0160E070E031DE80E090E013
:100B8000089584819581892B01F38FEF9FEF08955C
:100B90000F931F93CF93DF93EC018B01F89405C063
:100BA000B801CE01FFDD97FD27C08C819D81892B87
:100BB000B9F38C819D8101979D838C83EC85FD85A4
:100BC000CF0101969D878C871081288539858217F2
:100BD000930720F08E819F819D878C87EE85FF850E
:100BE000309711F0CE0109957894812F90E0DF9134
:100BF000CF911F910F9108957894DF91CF911F911C
:100C00000F9108956F927F928F929F92AF92BF92B1
:100C1000CF92DF92EF92FF920F931F93CF93DF93C8
:100C20004C017B016A013901FC01A684B784F89468
:100C300000E010E0452B81F41BC0A114B10419F0B1
:100C4000C401F501099578940C0F1D1FEC0EFD1ED3
:100C5000F8940C151D0560F4A601B701C4019DDED2
:100C6000EC01892B51F7B301C4019CDD892B89F379
:100C70007894C801DF91CF911F910F91FF90EF9071
:100C8000DF90CF90BF90AF909F908F907F906F90AC
:100C900008950F931F93FC01918380839383828334
:100CA00055834483778366837587648773876287F8
:100CB000460F571F5187408737872687118B008B38
:100CC0001F910F910895FF920F931F93CF93DF937E
:100CD000EC01F62E8A01F89405C0B801CE0162DD60
:100CE00097FD2AC08C819D81892BB9F38C819D81D0
:100CF00001979D838C83EA85FB85CF0101969B87B5
:100D00008A87F0822A853B85888599852817390747
:100D100020F08E819F819B878A87EE85FF853097A3
:100D200011F0CE010995789480E090E0DF91CF91A9
:100D30001F910F91FF9008957894DF91CF911F91AB
:100D40000F91FF900895CF93FC01A485B58582850E
:100D500093858A179B07E1F084819581019695839D
:100D60008483CD01019695878487CC912085318538
:100D70008217930740F4CF0160E070E030DD8C2FE4
:100D800090E0CF9108958681978195878487F3CFEE
:100D900084819581892B01F38FEF9FEFF2CF6F92C2
:100DA0007F928F929F92AF92BF92CF92DF92EF92FB
:100DB000FF920F931F93CF93DF934C017B016A0146
:100DC0003901FC01A684B784F89400E010E0452BBB
:100DD00081F41BC0A114B10419F0C401F5010995F7
:100DE00078940C0F1D1FEC0EFD1EF8940C151D05BC
:100DF00060F4A601B701C4012BDEEC01892B51F789
:100E0000B301C401CFDC892B89F37894C801DF9149
:100E1000CF911F910F91FF90EF90DF90CF90BF90F7
:100E2000AF909F908F907F906F90089552C121E076
:100E3000FC0120831282118208950596E3CE2FEFE4
:100E40003FEF0596DFCE4796AACF2FEF3FEF4796AD
:100E5000A6CF05969DCE6FEF7FEF059699CE47966C
:100E600032CF4FEF5FEF47962ECF80E090E00895AE
:100E7000B1C1EF92FF920F931F93CF93DF93EC01D9
:100E80009B017A01FC0186E291E081939193FB83BF
:100E9000EA8381E08C83BE01675D7F4F8E0140E174
:100EA00050E0CE0105962FDEBE01675C7F4F9701B3
:100EB00040E150E0CE014796ECDEDF91CF911F91EB
:100EC0000F91FF90EF900895CF93DF93EC01F8948A
:100ED00088D182E08C837894DF91CF9108951F931D
:100EE000CF93DF93EC01162F89859A85892B51F0DA
:100EF000612FCE01059621DE97FD0EC0DF91CF91C7
:100F00001F91089564E0CE010296A0DC612FCE010E
:100F1000059613DE97FFF2CF60E0CE010296DF91D7
:100F2000CF911F9193CC0F931F93CF93DF938C019D
:100F3000479609DFEC0197FD06C0CE01DF91CF9106
:100F40001F910F91089568E0C80102967FDCCE01E1
:100F5000DF91CF911F910F9108950895FC01808139
:100F600085B9818184B9828188B9838187B9848177
:100F70008BB985818AB90895FC014230C9F098F097
:100F80004530B1F0463021F48181682B61830895AA
:100F90004330E9F78181962F90958923818382815F
:100FA000682B62830895442319F0413099F3089522
:100FB000818160958623818382816823628308957D
:100FC0001F920F920FB60F9211242F933F934F93BE
:100FD0005F936F937F938F939F93AF93BF93EF93A1
:100FE000FF9381E080939104F0D810929104C4DAC9
:100FF0008111D2DAFF91EF91BF91AF919F918F91C3
:101000007F916F915F914F913F912F910F900FBE04
:101010000F901F90189582E084BD85BD9FE797BD16
:1010200016BC85BB80936E0008951F920F920FB679
:101030000F9211242F933F934F935F936F937F935E
:101040008F939F93AF93BF93EF93FF9381E0809330
:101050009104809198049091990401969093990439
:1010600080939804209196043091970482179307F7
:10107000B1F01092910480DA81118EDAFF91EF9134
:10108000BF91AF919F918F917F916F915F914F91A0
:101090003F912F910F900FBE0F901F9018951092B7
:1010A00099041092980480919204843041F0E09168
:1010B0009A04F0919B0482E994E00995DACF92E0DA
:1010C0009093920480918100887F8093810096BBE9
:1010D000EECF82E994E0ABCEE1ECF0E0808180627B
:1010E000808308951F920F920FB60F9211242F93B1
:1010F0003F934F935F936F937F938F939F93AF93A0
:10110000BF93EF93FF9381E0809391048091C0009F
:10111000982F9C71D9F46091C6008CE994E0DFDED1
:101120001092910429DA811137DAFF91EF91BF9182
:10113000AF919F918F917F916F915F914F913F916F
:101140002F910F900FBE0F901F90189583FD09C02F
:1011500060E082FD606284FD60648EE994E076DB8D
:10116000DACF60E8F6CF1F920F920FB60F921124DC
:101170002F933F934F935F936F937F938F939F939F
:10118000AF93BF93EF93FF9381E0809391048CE939
:1011900094E0C9DE97FD18C08093C60010929104B8
:1011A000EBD98111F9D9FF91EF91BF91AF919F9147
:1011B0008F917F916F915F914F913F912F910F9000
:1011C0000FBE0F901F9018958091C1008F7D809366
:1011D000C100E4CF4CE658E060E070E08CE994E0B8
:1011E00048CE6115710519F18C59944009F00895A4
:1011F000FB0180818093C40081818F708093C50042
:1012000082E08093C00088E98093C10082818130B0
:10121000B9F0A0F0823071F0843071F48091C10097
:1012200084608093C10086E08093C20008956AE3E1
:1012300071E0DACF84E0F8CF86E0F6CF80E0F4CF3B
:1012400082E0F2CF109269001DBA08952F923F926A
:101250004F925F926F927F928F929F92AF92BF92C6
:10126000CF92DF92EF92FF920F931F93CF93DF9372
:10127000CDB7DEB7A2970FB6F894DEBF0FBECDBFD5
:101280001C016B01588F4F8B1E8A1D8A9E012E5F99
:101290003F4F3E872D87AE014F5F5F4F588B4F8783
:1012A000241B350B38A32F8F215031093AA329A3D2
:1012B000CE010C969A8B898B86010F5F1F4FD6014A
:1012C0006C916623B9F0653281F1D101ED91FC9109
:1012D0000680F781E02DC1010995ED89FE893196DF
:1012E000FE8BED8B680186010F5F1F4FD6016C915D
:1012F0006111E9CF8D899E89A2960FB6F894DEBF61
:101300000FBECDBFDF91CF911F910F91FF90EF9056
:10131000DF90CF90BF90AF909F908F907F906F9015
:101320005F904F903F902F900895D60111968C9129
:1013300011978D3209F4ECC01A8E803309F4E1C0A4
:1013400020E2298FA8014F5F5F4F00E010E0EF8996
:10135000F88D13C0908132969801220F331F000F31
:10136000111F000F111F000F111F020F131F090F74
:10137000111D4F5F5F4FD6018C916A0190ED980F60
:101380009A3050F38A3231F3F88FEF8B20E030E05F
:101390008E3209F496C0982F9F7D9C3409F47EC04C
:1013A000AFEBA80F91E0AA3108F090E0482F50E091
:1013B000FA01E454F109E533F10508F4B1C0898379
:1013C000EF8DF8A189A09AA0AE014F5F5F4F7A011F
:1013D0005801AE1ABF0AB7FCDAC05A8D51115BC072
:1013E000002711270A191B0909F45FC1D7018C9145
:1013F0008D3209F464C1798CD101ED91FC910680A4
:10140000F781E02D672DC10109950F5F1F4FA1F7EF
:101410002D893E892F5F3F4F81E090E08A199B091B
:10142000A901481B590B5E8B4D8B97FC45CFA12C16
:10143000B12C8401F70161917F01D101ED91FC9103
:101440000680F781E02DC10109950150110990F73F
:101450008D899E89019697FC2FC1F401E80FF91F31
:10146000FE8BED8BA114B10409F426CF8501F98C14
:10147000D101ED91FC910680F781E02D6F2DC10126
:10148000099501501109A1F7ED89FE89EA0DFB1DAF
:10149000FE8BED8B11CF97FECCCFE4CFD6014C91D4
:1014A000442309F48CCFFFEFCF1ADF0A842F90E09A
:1014B000FC01E454F109E533F10508F4F9C0842F87
:1014C0007ECFDF010FC09C911296A901440F551FDA
:1014D000220F331F220F331F220F331F240F351FFC
:1014E000290F311DEFEFCE1ADE0AF6013197808108
:1014F00090ED980F9A3048F38A3229F3B88FAF8B6A
:101500004ACFF80181810F5F1F4FF0E3F98F1ACFA7
:1015100086010E5F1F4F12968C91B1E0BA8F0DCFEE
:10152000EC5CFF4F0C94A9138F89988D0296AF89BC
:10153000B88DED90FC90E114F10409F46EC1F7014F
:101540002115310509F4D5C04081442309F46AC14D
:1015500021503109F701319605C02150310908F4B5
:1015600051C1FB01BF016F5F7F4F40814111F5CF3A
:10157000EE19FF094F0121E0821A9108988F8F8B95
:1015800030E2398F5801AE1ABF0AB7FE26CFA12C20
:10159000B12C23CFAF89B88D8C918983EF8DF8A1C1
:1015A00089A09AA01296B88FAF8BB0E2B98F9E0136
:1015B0002F5F3F4F79010CCF91E04AE050E060E0AF
:1015C00070E0911167C0EF89F88D80809180A12C27
:1015D000B12C3296F88FEF8B240135019E01245FE8
:1015E0003F4F3C8B2B8B1C8F0B8F7A018B01DE8E38
:1015F000CD8EC501B401A80197010E948D139B01F6
:10160000205D3F4F2A33310514F0295F3F4FD22E22
:10161000AB89BC892E93BC8BAB8BC501B401A801EF
:1016200097010E948D1349015A01C301B201A8011B
:1016300097010E948D1329013A01232B242B252B7E
:10164000C1F60B8D1C8DFD2CCD8CDE8C89899A8981
:10165000EB89FC898E1B9F0BDE01119631969D0153
:10166000280F391F01C0F190FD92A217B307D9F7D7
:101670004C01F1E08F1A9108FC019E012F5F3F4F52
:101680007901A6CE91E048E050E060E070E0992357
:1016900009F499CFAF89B88D8D909D90AD90BC9095
:1016A00013971496B88FAF8B97CF97FEC0CE04CE0A
:1016B000E759FF4F0C94A913812C912CCECEB98DF4
:1016C000B03309F098CEEFEFEE1AFE0AD101ED919A
:1016D000FC910680F781E02D6DE2C1010995ED894D
:1016E000FE893196FE8BED8BF1E08F1A9108798C93
:1016F00083CE2081222309F495C02EEF3FE72ACF25
:1017000040E150E060E070E05CCFAA3108F459C0DD
:10171000EF89F88D80809180092C000CAA08BB0805
:101720003296F88FEF8BB7FC58C0AE014F5F5F4F1A
:101730005C8F4B8F8B8D9C8D0B969C8B8B8B2401A0
:1017400035011E8F0D8F7C01C501B4012AE030E008
:1017500040E050E0E2D7605D7F4F162FD7016E93D7
:101760007D0149015A01C301B2012AE030E040E0A5
:1017700050E0D3D729013A01232B242B252B21F725
:10178000C701F12E0D8D1E8DEB8DFC8DDC011196A8
:101790002B893C89281B390BC9018E0F9F1F01C063
:1017A000FD90F192E817F907D9F74F855889E41BA6
:1017B000F50B4F0151E0851A9108CE0101967C018D
:1017C00007CEAF89B88D8D909D90AD90BC9013974A
:1017D0001496B88FAF8BB7FEA8CF8DE28983B094F3
:1017E000A09490948094811C911CA11CB11C9E011A
:1017F0002E5F3F4F3C8F2B8F9DCF40E150E060E04C
:1018000070E048CFEE19FF094F0151E0851A9108A9
:10181000988F8F8B80E2898FDBCD43E4E42E41E00B
:10182000F42E8DCE580117FD0EC05A8D988F8F8BD8
:10183000511106C088248A94982C80E2898FD0CDDB
:10184000F0E2F98F0FCEA12CB12CEFCFCF93DF9325
:10185000CDB7DEB7AE01475F5F4F6F8178858D8171
:101860009E81F4DCDF91CF91089546E060E283E24F
:1018700090E082DB46E060E183E290E07DDB46E0E1
:1018800068E083E290E078DB46E064E083E290E0A9
:1018900073DB46E062E083E290E06EDB46E061E00D
:1018A00083E290E069DB46E061E086E290E064DBA1
:1018B00046E062E086E290E05FDB46E060E889E2D5
:1018C00090E05ADB42E064E089E290E055DB42E0E0
:1018D00068E089E290E050DB42E060E189E290E07C
:1018E0004BDB42E060E289E290E046DB42E060E40C
:1018F00089E290E041DB2D982C982B982A98299822
:101900002898409A419A5F988AE491E09F938F9338
:101910008CE994E09F938F9399DF0F900F900F9035
:101920000F9008958F929F92AF92BF92CF92DF92C5
:10193000EF92FF920F931F93CF93DF93F8948090D1
:101940006D0490906E04789428E03DE3DC0107D7A5
:1019500069517C4F8F4F9F4F28EE33E040E050E0BD
:10196000BAD68901940180E096E7A92E91E0B92EBC
:101970004CE9E42E44E0F42E5DE5C52E51E0D52E71
:10198000F894C0916D04D0916E0478948130B1F0D8
:101990008091F003853089F14098CE01821B930B32
:1019A00084389E41B8F580E0C819D9090C171D0785
:1019B00038F7409A419A8CE691E014C04198909192
:1019C000F0039530D1F0AE01421B530B44385E4119
:1019D00070F5C819D9090C171D0790F6409A419A5D
:1019E00085E891E09F938F938CE994E09F938F9388
:1019F0002DDF0F900F900F900F90DF91CF911F91DF
:101A00000F91FF90EF90DF90CF90BF90AF909F909D
:101A10008F900895DF92CF92FF92EF9217DF409A56
:101A20000F900F900F900F909E0181E0BDCFBF925D
:101A3000AF92FF92EF920ADF419A0F900F900F90B2
:101A40000F909E0180E0C5CF2F923F924F925F9200
:101A50006F927F928F929F92AF92BF92CF92DF92BE
:101A6000EF92FF920F931F93CF93DF938091F00338
:101A7000823009F4C2C148F0843009F475C008F41A
:101A8000A4C1853009F05DC0FFCF882309F4A6C04A
:101A9000813009F056C0289A29982A982B985F9887
:101AA0008091F004863009F41CC2873009F049C0E7
:101AB00086E692E09F938F93CCE9D4E0DF93CF93B7
:101AC000C5DE8091F1049091F2042CDF82E08093D6
:101AD000F00388E08093E5041092EB041092EA048E
:101AE00088EE93E09093ED048093EC0480E699E017
:101AF0009093EF048093EE04F89480916D0490919C
:101B00006E0478949093E7048093E6049093E9043C
:101B10008093E80484E792E09F938F93DF93CF93C1
:101B200095DE289880E892E09F938F93DF93CF9380
:101B30008DDE8DB79EB70C960FB6F8949EBF0FBE84
:101B40008DBFDF91CF911F910F91FF90EF90DF90AC
:101B5000CF90BF90AF909F908F907F906F905F904D
:101B60004F903F902F900895289829982A982B9A63
:101B70005F988091F8048E3021F74098F894809116
:101B80006D0490916E0478949093FA048093F90414
:101B9000A091FD04B091FE042091FB043091FC045F
:101BA000EC01C21BD30B28E03DE3D9D569517C4F32
:101BB0008F4F9F4F28EE33E040E050E08CD52C173C
:101BC0003D0708F0BECF409A1092F0031092F70440
:101BD0001092F6042B9888E393E0C4C080E991E06A
:101BE0009F938F93CCE9D4E0DF93CF932FDE8DEAE0
:101BF00091E09F938F93DF93CF9328DE8DB79EB7AD
:101C000008960FB6F8949EBF0FBE8DBF04EF11E08B
:101C100082E0282E312C9CED492E91E0592E20EDAA
:101C2000622E27E0722E38EE832E33E0932E40E6AC
:101C3000A42E49E0B42ECC24C394D12C63ECE62E20
:101C400061E0F62E13C05F9A289A299A2A9A2B9A55
:101C500081E08093F00386E08093F0047092F204B8
:101C60006092F1044E9904C14D995FC08091F604D1
:101C70009091F704009739F38130910509F47EC003
:101C800082309105B1F54E9BEFCF89E391E00E9440
:101C9000CC034E99FECF84E08093F0038EE08093D6
:101CA000F804F89480916D0490916E047894909368
:101CB000FA048093F9049093FC048093FB0480EA77
:101CC0009FE09093FE048093FD0483E090E0909366
:101CD000F7048093F6041F930F93DF93CF93B6DD41
:101CE0002A988091F6049091F7040F900F900F902E
:101CF0000F90039709F0B8CF4E9BB6CF89E391E0E0
:101D00000E94CC034E99FECF8DEA91E09F938F9372
:101D1000DF93CF939BDD1092F7041092F6040F909F
:101D20000F900F900F904D9BA1CF89E391E00E94FF
:101D3000CC038FE092E09F938F93CCE9D4E0DF93C4
:101D4000CF9384DD8091F6049091F7040F900F906B
:101D50000F900F90009709F4D9C0029709F0F1CEC7
:101D60008DE392E09F938F938CE994E09F938F9300
:101D70006DDD0F900F900F900F90E3CE4E9B74CFC0
:101D800089E391E00E94CC034E99FECF83E08093DB
:101D9000F0038BE08093F30488EB9BE09093F504D1
:101DA0008093F4043092F7042092F6045F924F92ED
:101DB000DF93CF934BDD29988091F6049091F7043F
:101DC0000F900F900F900F905BCF289829982A9A28
:101DD0002B985F988091F3048C3009F418C18D30F2
:101DE00009F436C18B3009F0ACCE2C9A4C9BA9CEAD
:101DF0002C988CE08093F304A4CE2898299A2A98F2
:101E00002B985F988091E504893009F4C0C08A302E
:101E100009F48CC0883009F094CE81E992E09F9358
:101E20008F93CCE9D4E0DF93CF9310DD8091EE0463
:101E30009091EF0477DDF89480916D0490916E0499
:101E400078949093E9048093E80489E08093E50412
:101E500081EA92E09F938F93DF93CF93F7DC8DB766
:101E60009EB708960FB6F8949EBF0FBE8DBF69CE81
:101E700089E391E00E94CC034E99FECF82E08093EB
:101E8000F00388E08093E5041092EB041092EA04DA
:101E90009092ED048092EC04B092EF04A092EE04D4
:101EA000F89480916D0490916E0478949093E70477
:101EB0008093E6049093E9048093E804D092F704B9
:101EC000C092F604FF92EF92DF93CF93BFDC289885
:101ED0008091F6049091F7040F900F900F900F905F
:101EE000CBCE2C9A4C9B2DCE87E592E09F938F937F
:101EF0008CE994E09F938F93A9DC2C9887E08093E2
:101F0000F0040F900F900F900F901BCE84E292E0A0
:101F10009F938F93DF93CF9399DC8091F6049091F8
:101F2000F7040F900F900F900F9017CF2D9A4B9BA7
:101F300008CE2D9885EC92E09F938F93CCE9D4E066
:101F4000DF93CF9383DC299883ED92E09F938F9367
:101F5000DF93CF937BDC83E08093F0038BE080936F
:101F6000F30488EB9BE09093F5048093F40484EEF3
:101F700092E09F938F93DF93CF9368DC8DB79EB7EA
:101F80000C960FB6F8949EBF0FBE8DBFDACDF894B5
:101F900080916D0490916E0478949093E7048093FF
:101FA000E604A091EC04B091ED042091E804309196
:101FB000E904EC01C21BD30B28E03DE3D0D3695107
:101FC0007C4F8F4F9F4F28EE33E040E050E083D3AB
:101FD0002C173D0708F0B5CDF89480916D049091D1
:101FE0006E0478949093E9048093E8048091EA0465
:101FF0009091EB04833091050CF062C001969093B0
:10200000EB048093EA0488E08093E5049ACD84EFA2
:1020100092E09F938F93CCE9D4E0DF93CF9316DCCB
:102020008091F4049091F5047DDC8DE08093F304BD
:1020300084E093E09F938F93DF93CF9307DC8DB77A
:102040009EB708960FB6F8949EBF0FBE8DBF79CD90
:102050002D9A4B9B76CD2D9884E08093F0038EE0F3
:102060008093F804F89480916D0490916E047894B4
:102070009093FA048093F9049093FC048093FB04FA
:1020800080EA9FE09093FE048093FD0486E193E054
:102090009F938F93CCE9D4E0DF93CF93D7DB2A983B
:1020A00084E293E09F938F93DF93CF93CFDB8DB741
:1020B0009EB708960FB6F8949EBF0FBE8DBF41CD58
:1020C0001092EB041092EA048AE08093E50482EB1C
:1020D00092E048CE0E94C4040E94CE0060E070E00E
:1020E0008CE994E00E9464078AE493E09F938F93C5
:1020F000CCE9D4E0DF93CF93A9DBB7DB1092F003F8
:102100001092F7041092F6041F921F928CE593E050
:102110009F938F93DF93CF9399DB8DB79EB70A96EA
:102120000FB6F8949EBF0FBE8DBF8EDCFECFABE026
:10213000B0E0ECE9F0E11DC36C017B013A01FC0168
:1021400017821682838181FFF9C0CE0101964C016E
:10215000F601B380F701B3FC0591B3FE01917F0155
:10216000002309F4E7C0053249F4B3FC0591B3FE3E
:1021700001917F01053211F010E017C0B601802FE8
:1021800090E093D353013501E3CF002309F4D2C08B
:10219000602F70E083E491E036D3892B49F0F7019A
:1021A000B3FC0591B3FE01917F0117FFEECF04C090
:1021B000033239F00C3619F0011105C0BBC01068AC
:1021C000EECF10E1ECCF602F70E08CE391E01BD3F9
:1021D000892B41F05301F4E0AF0EB11CB6018FE33F
:1021E00090E010C0033631F0033771F0033501F58C
:1021F00011600AC0530182E0A80EB11CB601F301C0
:102200008081918152D3BFCF5301F2E0AF0EB11C58
:10221000F30160807180F30110FD859110FF8191C1
:102220003F01882309F4AFCFB60190E03ED3F3CF4E
:10223000043611F0093621F5530117FF09C0F4E007
:10224000AF0EB11CF30160817181828193810AC05C
:10225000F2E0AF0EB11CF30160817181072E000C1A
:10226000880B990B1F7E97FF08C0909580957095FD
:1022700061957F4F8F4F9F4F10642AE030E030C050
:10228000003791F040F40835A1F00F3609F052C044
:1022900028E030E011C0053719F0083731F04AC0A6
:1022A0001F7E2AE030E008C01061146220E130E0B7
:1022B00003C0146020E132E0530117FF09C0F4E0CD
:1022C000AF0EB11CF301608171818281938108C0DE
:1022D000F2E0AF0EB11CF3016081718180E090E00B
:1022E000A40138D3082F081916FF04C0B6018DE2E7
:1022F00090E0DBD214FF13C0FE01E00FF11D8081DE
:10230000803369F0B60180E390E0CFD212FF07C0BE
:102310001072812F90E0B601885A9F4FC6D20150AB
:10232000F401E00FF11D8081B60190E0BED20111F1
:10233000F6CF29CFF6018681978102C08FEF9FEFFC
:102340002B96EEE032C220FD09C0FC0123FD05C042
:1023500022FF02C07383628351834083089544FD4A
:1023600017C046FD17C0AB01BC01DA01FB01AA0F83
:10237000BB1FEE1FFF1F1094D1F74A0F5B1F6E1F8C
:102380007F1FCB01BA01660F771F881F991F09C0F5
:1023900033E001C034E0660F771F881F991F31506A
:1023A000D1F7620F711D811D911D08950F931F9329
:1023B000CF93DF938C01C8013AD2EC0197FD06C0A0
:1023C0001AD2892BC1F7B801CE01ABD2CE01DF9171
:1023D000CF911F910F9108958F929F92AF92BF92CC
:1023E000EF92FF920F931F93CF93DF938C01D62F21
:1023F0007A01B22E1CD29C0133272B32310531F0E9
:102400002D32310559F48B2D8068B82ED15011F43E
:1024100080E061C0C8010BD297FDFACFCB2DCD7FF4
:102420002B2D2073F9F48033E9F4AA24AA94AD0E7D
:1024300009F43EC0C801FBD197FD3AC09C012F7D35
:1024400033272835310541F4C264D25089F1C801DF
:10245000EED197FF07C02CC0B6FE02C0C26001C01B
:10246000C261DA2D812C912C540120ED280F2830E7
:1024700078F0C4FF03C0B80154D217C02A3040F02E
:10248000C6FFF9CF2F7D3FEE320F3630A0F7275031
:102490004C2FC501B40163DF4B015C01C260D15018
:1024A00051F0C801C4D197FFE0CFC1FD04C0B0CF47
:1024B000812C912C5401C7FF08C0B094A094909433
:1024C0008094811C911CA11CB11C2C2FB501A4016E
:1024D000C70139DF81E0DF91CF911F910F91FF900C
:1024E000EF90BF90AF909F908F900895A0E0B0E0E4
:1024F000EBE7F2E13DC16C01EB015A01FC011782EF
:102500001682512CF601F380FE01F3FC8591F3FE57
:102510008191182FEF01882309F4D4C090E06BD18A
:10252000892B19F0C60142DFEDCF153241F4FE01CF
:10253000F3FC1591F3FE1191EF01153271F4C60110
:1025400076D197FDBDC0412F50E09C013327241761
:102550003507C1F2B601E5D1B5C01A3239F4F3FC42
:102560001591F3FE1191EF0101E001C000E0E12CB3
:1025700020ED210F2A3078F402606E2D70E080E0AB
:1025800090E040E2ECDEE62EFE01F3FC1591F3FE56
:102590001191EF01EDCF01FF03C0E11003C092C024
:1025A000EE24EA94183619F01C3651F010C0FE01E2
:1025B000F3FC1591F3FE1191EF01183641F4086018
:1025C0000460FE01F3FC1591F3FE1191EF0111235C
:1025D00009F478C0612F70E083E591E014D1892B74
:1025E00009F470C000FD07C0F50180809180C5012D
:1025F00002965C0102C0812C912C1E3649F4F60132
:102600004681578160E070E0202FC4019CDE7ACFC4
:102610001336A1F401FD02C0EE24E394C60107D1F4
:1026200097FD4EC08114910429F0F4018083C40108
:1026300001964C01EA94E110F1CF3EC0C601B6DE2E
:1026400097FD3EC01F3649F128F4143621F11936A2
:1026500039F125C0133771F01537E9F020C0811426
:10266000910429F0F4016082C40101964C01EA94BE
:10267000EE2059F0C601DBD03C0197FD06C0BBD06F
:10268000892B69F3B601C3014CD181149104A1F0E7
:10269000F401108211C0006203C0006101C0006437
:1026A000202FA4016E2DC60197DE811105C0F60111
:1026B0008381807329F406C000FD24CF539422CF78
:1026C000552019F0852D90E002C08FEF9FEFCDB718
:1026D000DEB7EFE069C0A1E21A2EAA1BBB1BFD0109
:1026E0000DC0AA1FBB1FEE1FFF1FA217B307E407F1
:1026F000F50720F0A21BB30BE40BF50B661F771F49
:10270000881F991F1A9469F7609570958095909528
:102710009B01AC01BD01CF010895052E97FB16F476
:1027200000940FD057FD05D0D6DF07FC02D046F449
:1027300008C050954095309521953F4F4F4F5F4FC2
:10274000089590958095709561957F4F8F4F9F4F1D
:102750000895EE0FFF1F0590F491E02D09943CD0F1
:10276000B7FF0895821B930B08952F923F924F92CB
:102770005F926F927F928F929F92AF92BF92CF9211
:10278000DF92EF92FF920F931F93CF93DF93CDB71A
:10279000DEB7CA1BDB0B0FB6F894DEBF0FBECDBF92
:1027A00009942A88398848885F846E847D848C8463
:1027B0009B84AA84B984C884DF80EE80FD800C816C
:1027C0001B81AA81B981CE0FD11D0FB6F894DEBF4F
:1027D0000FBECDBFED010895A29FB001B39FC00110
:1027E000A39F700D811D1124911DB29F700D811D3D
:1027F0001124911D089591110BC1803219F0895057
:102800008550D0F70895FC010590061621F00020B0
:10281000D9F7C00108953197CF010895FB01DC017C
:1028200002C001900D9241505040D8F70895CF93C7
:10283000DF93EC012B8120FF33C026FF0AC02F7BE2
:102840002B838E819F8101969F838E838A8190E066
:1028500029C022FF0FC0E881F9818081082E000C79
:10286000990B009719F420622B831AC03196F983D3
:10287000E8830EC0EA85FB85099597FF09C02B8187
:10288000019611F080E201C080E1822B8B8308C0A9
:102890002E813F812F5F3F4F3F832E83992702C0B8
:1028A0008FEF9FEFDF91CF9108950F931F93CF93F9
:1028B000DF93FB01238121FD03C08FEF9FEF2CC02D
:1028C00022FF16C046815781248135814217530764
:1028D00044F4A081B1819D012F5F3F4F318320835C
:1028E0008C93268137812F5F3F4F3783268314C017
:1028F0008B01EC01FB010084F185E02D0995892B0A
:10290000E1F6D80116968D919C911797019617962E
:102910009C938E931697CE01DF91CF911F910F91CB
:102920000895FB01238120FF12C026FD10C08F3FB8
:102930003FEF930761F082832F7D206423832681FC
:1029400037812150310937832683992708958FEFE6
:102950009FEF0895FA01AA27283051F1203181F123
:10296000E8946F936E7F6E5F7F4F8F4F9F4FAF4F97
:10297000B1E03ED0B4E03CD0670F781F891F9A1FAA
:10298000A11D680F791F8A1F911DA11D6A0F711D5E
:10299000811D911DA11D20D009F468943F912AE06A
:1029A000269F11243019305D3193DEF6CF01089552
:1029B000462F4770405D4193B3E00FD0C9F7F6CF83
:1029C000462F4F70405D4A3318F0495D31FD40524B
:1029D000419302D0A9F7EACFB4E0A69597958795E1
:1029E00077956795BA95C9F70097610571050895C0
:1029F0009B01AC010A2E069457954795379527956C
:102A0000BA95C9F7620F731F841F951FA01D089503
:0A2A1000992788270895F894FFCF56
:102A1A0069646C65000001F1035A0401CD000000ED
:102A2A006D61696E0016002802021C040507090B75
:102A3A00000D0E000000000025071F0731072B07B5
:102A4A002F07290723071D073507330003FF20FF38
:102A5A0000FF02286E756C6C290070696E6F732016
:102A6A00696E69636961646F73200A0D0047697250
:102A7A006120457371756564610A0D007361696E41
:102A8A00646F200A0D0047697261204469726569A2
:102A9A0074610A0D0046696D204769726F0A0D005C
:102AAA0053656C6563696F6E65206F206573746129
:102ABA00646F20696E696369616C0A0D004D6F6409
:102ACA006F20696E696369616C3A204D6F6C686F3B
:102ADA000A0D004D6F646F20696E696369616C3A13
:102AEA00204C61766167656D200A0D004D6F646F39
:102AFA0020696E696369616C3A20456E7861677511
:102B0A00650A0D004D6F646F20696E696369616CB7
:102B1A003A2043656E747269667567610A0D0049E9
:102B2A006E6963696F20646F2070726F6365737377
:102B3A006F0A0D00456E6368656E646F207061727E
:102B4A0061206F204D6F6C686F200A0D00456E631F
:102B5A0068656E646F2070617261206F20656E789F
:102B6A00616775650A0D0053656E736F722063683D
:102B7A0065696F0A0D004769726F73204D6F6C6843
:102B8A006F0A0D0046494D204D6F6C686F0A0D00A3
:102B9A00496E6963696F204C41564147454D0A0D9C
:102BAA00004769726F73204C61766167656D0A0D23
:102BBA0000457370657261204C61766167656D0AC4
:102BCA000D00457376617A6961204C6176616765AB
:102BDA006D200A0D0046696D204C61766167656D4E
:102BEA000A0D00496E6963696F20456E78616775E1
:102BFA00650A0D00456E63686520456E78616775E4
:102C0A00650A0D00526F64617220456E78616775BE
:102C1A00650A0D00457376617A696120456E7861AF
:102C2A006775650A0D0046696D20456E786167759E
:102C3A00650A0D00496E6963696F2043656E747297
:102C4A0069667567610A0D0046494D20444F205058
:102C5A00524F434553534F0A0D00494E4943494F7A
:102C6A00204DC3815155494E410A0D002564200A61
:022C7A000D004B
:00000001FF
