:1000000044C000005FC000005DC000005BC0000095
:1000100059C0000057C0000055C0000053C0000088
:1000200051C000004FC000004DC0000081C700005B
:1000300049C0000047C0000046C7000043C00000A0
:1000400041C000003FC00000D0C700000C9436083B
:1000500039C0000037C0000035C0000033C00000C8
:1000600031C000002FC0000045464765666700208C
:100070002B2D2E3031323334353637383968006322
:1000800064696E6F70737578580011241FBECFEFCE
:10009000D8E0DEBFCDBF11E0A0E0B1E0E0E6F9E1DD
:1000A00002C005900D92A034B107D9F722E0A0E478
:1000B000B1E001C01D92A23CB207E1F70E947808AE
:1000C0000C94AE0C9DCFFFCF22D15CD07AD3B1D3AC
:1000D00040E860E171E08EE492E030D2FC01909360
:1000E00043028093420291E0958790936E02789448
:1000F00085E091E0A6C20F931F93CF93DF93809189
:100100004A0290914B02019690934B0280934A02CF
:10011000A0914402B091450282E0A434B80769F18D
:1001200014968D919C911597019715969C938E939B
:100130001497892B11F504E412E01696ED91FC91C9
:10014000179717961C921E921697CD91DC911197D6
:100150001B830A83D0934502C093440218968D9165
:100160009C9119970995A0914402B091450214966B
:100170008D919C911597892B01F3DF91CF911F9160
:100180000F910895E7E3F2E084E492E09687858793
:10019000908B87878FEF9FEF928B818B148A138AC6
:1001A0000895CF93DF93DC0119963C932E93189713
:1001B00017965C934E931697E0914402F091450296
:1001C000248135812617370750F4621B730B019089
:1001D000F081E02D2481358126173707B0F3119681
:1001E000FC93EE93C281D3811396DC93CE93129746
:1001F000B983A883B383A28315967C936E931497D7
:1002000084819581861B970B958384838FEF9FEF65
:100210009093490280934802DF91CF910895CF9344
:10022000DF93FC01A081B18114962D913C9115972B
:1002300084819581820F931F15969C938E931497BA
:10024000C281D381B983A883A081B1811396DC9345
:10025000CE931297178216828FEF9FEF90934902E9
:1002600080934802DF91CF910895CF93DF93DC0113
:100270001D968C911D97843099F170F5882349F172
:10028000833031F45096ED91FC9151971182108298
:100290008FEF9FEF51969C938E9350971D961C92D3
:1002A0001D9714962C911497E7E3F2E00190F081EA
:1002B000E02D94819217D0F71196FC93EE93C281B2
:1002C000D3811396DC93CE931297B983A883B3831B
:1002D000A283DF91CF910895853089F08730C1F6F0
:1002E0001296ED91FC9113978D919C9111979183AA
:1002F0008083CD91DC911197FB83EA83C9CF50961F
:10030000ED91FC91519784818F5F8483E9CFE7E37E
:10031000F2E0F183E083F383E2831482F087E783E2
:10032000F287E1870895CF93DF93DC011D961C923D
:100330001D9714962C911497E7E3F2E00190F08159
:10034000E02D94819217D0F71196FC93EE93C28121
:10035000D3811396DC93CE931297B983A883B3838A
:10036000A283CD01DF91CF910895CF93DF93E7E38F
:10037000F2E063857485DB011D968C938081918109
:10038000EC01A881B981B183A0831396FC93EE930D
:1003900012979487838721E02D8758D2DF91CF91E0
:1003A00008951F93CF93DF93CDB7DEB72A970FB68B
:1003B000F894DEBF0FBECDBF182F6F3F8FEF7807C9
:1003C00011F1209142023091430245E351E0CE0108
:1003D0000196E7DE812FC9DF8F819885892B19F07F
:1003E000CE0101961CDFE0914202F0914302808928
:1003F00091892A960FB6F894DEBF0FBECDBFDF916C
:10040000CF911F910895812FB0DFEDCFCF93DF9370
:10041000DC01C0914202D091430251967C936E93CD
:10042000509714962C9114978C818217D8F01D96B2
:100430001C921D97E7E3F2E00190F081E02D94819A
:100440009217D0F71196FC93EE93C281D381139645
:10045000DC93CE931297B983A883B383A283DF91F1
:10046000CF9108951D86E7E3F2E00190F081E02D41
:1004700094819817D0F7CD01F983E883A281B381E5
:10048000BB83AA83CD93DC93D383C283909343022F
:100490008093420221E0FC012587BE01D7D1DF9184
:1004A000CF910895A0913702B0913802E0914202B5
:1004B000F091430281E014962C919481921708F0F8
:1004C00080E00895CF93DF93A0914202B091430260
:1004D0004091370250913802EA01E881F981F093A6
:1004E0003802E093370287E392E09383828350934C
:1004F00043024093420281E08D871D961C921D9716
:1005000014962C91149703C00190F081E02D9481F2
:100510002917D0F31196FC93EE9382819381139661
:100520009C938E931297EC01B983A883B383A28323
:10053000BD01CA018BD1DF91CF910895CF93DF9395
:10054000FC01448382E085871686438F128E118ECC
:10055000108E81E0878774876387A7E3B2E0B08756
:10056000A7831996CD91DC911A97D287C187F88716
:10057000EF831A96FC93EE931997CF014296938BD3
:10058000828B0296958B848B978B868BCF01DF9124
:10059000CF910895CF93DF93EC014C815D81FA01F7
:1005A0007C97CA01C197968385832F81DC0152967F
:1005B0002C935297288551962C93519729855096C4
:1005C0002C9350972A851F962C931F9725E534E08E
:1005D00053963C93539754962C938E81288139815E
:1005E000848392E095871686838F128E118E108EEB
:1005F00081E0878734872387C7E3D2E0D087C7832A
:1006000089859A8592878187DC011896FC93EE9301
:100610001797FA87E987EA012A97D983C883DA010D
:1006200018970B2E11960C921197AC930A2E1B2E35
:1006300013961C920E9211241297CF01DF91CF9145
:100640000895CF93DF93F894A5DFEC0160E070E0AC
:10065000DDDE7894CE01DF91CF9108950F931F9343
:10066000CF93DF93C0914202D0914302998B888B44
:100670008E010E5E1F4F8A899B890817190759F052
:10068000FC01208131813B8B2A8B4DDE8A899B893D
:1006900080179107A9F78F8581110CC0E985FA852C
:1006A0008F81988590878783AF81B8851A96FC9350
:1006B000EE9319978FE0DF91CF911F910F9155CE57
:1006C000F894CCCFF894BC0188E06BDE7894089560
:1006D000CF93DF936115710599F0E0914202F0919B
:1006E000430291838083EC01AA81BB81B383A283FF
:1006F000ED93FC93FB83EA8384E0DF91CF9151CEAD
:100700008FEF9FEFDF91CF910895CF93DF93FC019F
:1007100080819181E817F90771F0EC01A881B98116
:10072000B183A0831396FC93EE931297798B688B19
:10073000DF91CF91F8CDDF91CF910895FC019183A6
:10074000808393838283158214820895FC01908DA7
:10075000692B608F85858A3059F08B3009F00895B8
:10076000808968238613FBCF118A108ACF01DBCDE5
:1007700080896823C9F70895EF92FF921F93CF9362
:10078000DF937C01162FFC01C081D1818C179D075E
:1007900091F08D81812B8D83112319F09E81892306
:1007A00021F06C818A819B81D1DF0990D881C02D95
:1007B000EC16FD0671F7DF91CF911F91FF90EF903E
:1007C0000895EAE6F2E080E491E09183808380EC92
:1007D00091E0938382830895F8949B01215031091D
:1007E000719561957109E0916A02F0916B024E0F6B
:1007F0005F1F420F531F46235723820F931F682307
:100800007923CA01860F971F20916C0230916D02E7
:100810002817390750F08E179F0738F090936B0216
:1008200080936A02CA017894089580E090E07894F9
:100830000895E0ECF1E08CEE93E0918380831382E5
:1008400012821582148286EC91E078CF2F923F922B
:100850004F925F926F927F928F929F92AF92BF92D0
:10086000CF92DF92EF92FF920F931F93CF93DF937C
:10087000FB010DB605820EB60682FC0105800DBE99
:1008800006800EBEDF91CF911F910F91FF90EF90E8
:10089000DF90CF90BF90AF909F908F907F906F90A0
:1008A0005F904F903F902F9008957894C201F1018E
:1008B000099506CFD5D28AE391E0D3D245D266D24C
:1008C00013D400C02BC3AF92BF92CF92DF92EF92AE
:1008D000FF920F931F93CF93DF93EC016B018A017B
:1008E0008C819D818417950710F40C811D816C8586
:1008F0007D85E884F984E61AF70A0E151F0580F154
:10090000E016F106C8F0A801C6012BD78E819F81A1
:100910009D878C878C819D81801B910B9D838C830F
:10092000C801DF91CF911F910F91FF90EF90DF9061
:10093000CF90BF90AF900895A701C60112D758017C
:10094000AE18BF086E817F81A501C6018E0D9F1D67
:1009500008D78E819F81A80EB91EBD86AC86DACFDE
:10096000A801C601FED68C859D85800F911F9D87AD
:100970008C87D0CFAF92BF92CF92DF92EF92FF924F
:100980000F931F93CF93DF93EC016B018A018C814E
:100990009D818417950710F40C811D818A859B85A4
:1009A000E884F984E81AF90A0E151F0580F1E016AB
:1009B000F106C8F0A801B601D4D68E819F819B872D
:1009C0008A878C819D81801B910B9D838C83C801BC
:1009D000DF91CF911F910F91FF90EF90DF90CF901B
:1009E000BF90AF900895A701B601BBD65801AE18CD
:1009F000BF08B6016E0D7F1DA5018E819F81B1D606
:100A00008E819F81A80EB91EBB86AA86DACFA80167
:100A1000B601A7D68A859B85800F911F9B878A8701
:100A2000D0CF0F931F93FC019183808393838283A4
:100A300015821482778366837587648773876287DC
:100A4000640F751F7187608737872687118B008B2E
:100A50001F910F910895FC01A285B385848595852A
:100A6000A817B907E1F08481958101969583848365
:100A7000CD010196938782876C932285338580858B
:100A800091852817390720F086819781938782877F
:100A9000CF0160E070E039DE80E090E0089584816D
:100AA0009581892B01F38FEF9FEF08950F931F938B
:100AB000CF93DF93EC018B01F89405C0B801CE0110
:100AC00007DE97FD27C08C819D81892BB9F38C812E
:100AD0009D8101979D838C83EC85FD85CF010196D7
:100AE0009D878C871081288539858217930720F090
:100AF0008E819F819D878C87EE85FF85309711F0D1
:100B0000CE0109957894812F90E0DF91CF911F91CC
:100B10000F9108957894DF91CF911F910F910895CF
:100B20006F927F928F929F92AF92BF92CF92DF92FD
:100B3000EF92FF920F931F93CF93DF934C017B01B2
:100B40006A013901FC01A684B784F89400E010E042
:100B5000452B81F41BC0A114B10419F0C401F501A7
:100B6000099578940C0F1D1FEC0EFD1EF8940C15C2
:100B70001D0560F4A601B701C401A5DEEC01892BB7
:100B800051F7B301C401A4DD892B89F37894C8011E
:100B9000DF91CF911F910F91FF90EF90DF90CF9059
:100BA000BF90AF909F908F907F906F9008950F931C
:100BB0001F93FC01918380839383828355834483B5
:100BC000778366837587648773876287460F571FAD
:100BD0005187408737872687118B008B1F910F9194
:100BE0000895FF920F931F93CF93DF93EC01F62E9E
:100BF0008A01F89405C0B801CE016ADD97FD2AC0CC
:100C00008C819D81892BB9F38C819D8101979D8376
:100C10008C83EA85FB85CF0101969B878A87F082CA
:100C20002A853B85888599852817390720F08E818C
:100C30009F819B878A87EE85FF85309711F0CE01D3
:100C40000995789480E090E0DF91CF911F910F910A
:100C5000FF9008957894DF91CF911F910F91FF90AD
:100C60000895CF93FC01A485B585828593858A1765
:100C70009B07E1F084819581019695838483CD0162
:100C8000019695878487CC912085318582179307BB
:100C900040F4CF0160E070E038DD8C2F90E0CF9120
:100CA00008958681978195878487F3CF8481958184
:100CB000892B01F38FEF9FEFF2CF6F927F928F928C
:100CC0009F92AF92BF92CF92DF92EF92FF920F93DB
:100CD0001F93CF93DF934C017B016A013901FC0123
:100CE000A684B784F89400E010E0452B81F41BC083
:100CF000A114B10419F0C401F501099578940C0F01
:100D00001D1FEC0EFD1EF8940C151D0560F4A601C8
:100D1000B701C4012FDEEC01892B51F7B301C401E7
:100D2000D7DC892B89F37894C801DF91CF911F918B
:100D30000F91FF90EF90DF90CF90BF90AF909F907A
:100D40008F907F906F90089547C121E0FC01208330
:100D50001282118208950596E3CE2FEF3FEF05969C
:100D6000DFCE4796AACF2FEF3FEF4796A6CF059647
:100D70009DCE6FEF7FEF059699CE479632CF4FEF1E
:100D80005FEF47962ECF80E090E00895A6C1EF92E6
:100D9000FF920F931F93CF93DF93EC019B017A0196
:100DA000FC0186E291E081939193FB83EA8381E0E9
:100DB0008C83BE01675D7F4F8E0140E150E0CE0124
:100DC00005962FDEBE01675C7F4F970140E150E042
:100DD000CE014796ECDEDF91CF911F910F91FF90EE
:100DE000EF9008951F93CF93DF93EC01162F898521
:100DF0009A85892B51F0612FCE0105962CDE97FD47
:100E00000EC0DF91CF911F91089564E0CE0102964C
:100E1000B3DC612FCE0105961EDE97FFF2CF60E0B6
:100E2000CE010296DF91CF911F91A6CC0F931F9315
:100E3000CF93DF938C01479614DFEC0197FD06C03A
:100E4000CE01DF91CF911F910F91089568E0C80105
:100E5000029692DCCE01DF91CF911F910F91089500
:100E60000895FC01808185B9818184B9828188B926
:100E7000838187B984818BB985818AB90895FC0102
:100E80004230C9F098F04530B1F0463021F481810C
:100E9000682B618308954330E9F78181962F9095FF
:100EA000892381838281682B62830895442319F00A
:100EB000413099F3089581816095862381838281F1
:100EC0006823628308951F920F920FB60F92112428
:100ED0002F933F934F935F936F937F938F939F9342
:100EE000AF93BF93EF93FF9381E080936E0203D99A
:100EF00010926E02D7DA8111E5DAFF91EF91BF917E
:100F0000AF919F918F917F916F915F914F913F91A1
:100F10002F910F900FBE0F901F90189582E084BD07
:100F200085BD9FE797BD16BC85BB80936E00089575
:100F30001F920F920FB60F9211242F933F934F934E
:100F40005F936F937F938F939F93AF93BF93EF9331
:100F5000FF9381E080936E028091750290917602FA
:100F600001969093760280937502209173023091DE
:100F7000740282179307B1F010926E0293DA811116
:100F8000A1DAFF91EF91BF91AF919F918F917F91E6
:100F90006F915F914F913F912F910F900FBE0F90E6
:100FA0001F901895109276021092750280916F0230
:100FB000843041F0E0917702F09178028FE692E080
:100FC0000995DACF92E090936F0280918100887F3B
:100FD0008093810096BBEECF8FE692E0B6CEE1EC37
:100FE000F0E080818062808308951F920F920FB697
:100FF0000F9211242F933F934F935F936F937F939F
:101000008F939F93AF93BF93EF93FF9381E0809370
:101010006E028091C000982F9C71D9F46091C60037
:1010200089E792E0DFDE10926E023CDA81114ADA43
:10103000FF91EF91BF91AF919F918F917F916F91B0
:101040005F914F913F912F910F900FBE0F901F9086
:10105000189583FD09C060E082FD606284FD6064D4
:101060008BE792E089DBDACF60E8F6CF1F920F9230
:101070000FB60F9211242F933F934F935F936F936B
:101080007F938F939F93AF93BF93EF93FF9381E0F1
:1010900080936E0289E792E0C9DE97FD18C08093C5
:1010A000C60010926E02FED981110CDAFF91EF9109
:1010B000BF91AF919F918F917F916F915F914F9170
:1010C0003F912F910F900FBE0F901F901895809118
:1010D000C1008F7D8093C100E4CF4FEE57E060E008
:1010E00070E089E792E053CE109269001DBA08952E
:1010F000E1DB0E94640046E060E189E290E0BFDE4F
:1011000042E060E889E290E0BADE09C05C9A2D9A7C
:1011100084E89EE1D7DA2D9884E89EE1D3DA4F99EE
:10112000F5CF5C98F4CFABE0B0E0E8E9F8E0D3C2EB
:101130006C017B013A01FC0117821682838181FFD9
:10114000F9C0CE0101964C01F601B380F701B3FC62
:101150000591B3FE01917F01002309F4E7C0053238
:1011600049F4B3FC0591B3FE01917F01053211F002
:1011700010E017C0B601802F90E03AD3530135013B
:10118000E3CF002309F4D2C0602F70E08FE690E037
:10119000DDD2892B49F0F701B3FC0591B3FE019133
:1011A0007F0117FFEECF04C0033239F00C3619F07F
:1011B000011105C0BBC01068EECF10E1ECCF602F6D
:1011C00070E088E690E0C2D2892B41F05301F4E050
:1011D000AF0EB11CB6018FE390E010C0033631F0C2
:1011E000033771F0033501F511600AC0530182E045
:1011F000A80EB11CB601F30180819181F9D2BFCF55
:101200005301F2E0AF0EB11CF30160807180F30175
:1012100010FD859110FF81913F01882309F4AFCF24
:10122000B60190E0E5D2F3CF043611F0093621F58E
:10123000530117FF09C0F4E0AF0EB11CF301608148
:101240007181828193810AC0F2E0AF0EB11CF3017B
:1012500060817181072E000C880B990B1F7E97FF10
:1012600008C090958095709561957F4F8F4F9F4FE7
:1012700010642AE030E030C0003791F040F40835C7
:10128000A1F00F3609F052C028E030E011C0053758
:1012900019F0083731F04AC01F7E2AE030E008C05C
:1012A0001061146220E130E003C0146020E132E0FC
:1012B000530117FF09C0F4E0AF0EB11CF3016081C8
:1012C00071818281938108C0F2E0AF0EB11CF301FD
:1012D0006081718180E090E0A401DFD2082F0819BD
:1012E00016FF04C0B6018DE290E082D214FF13C055
:1012F000FE01E00FF11D8081803369F0B60180E3CB
:1013000090E076D212FF07C01072812F90E0B601F4
:10131000885A9F4F6DD20150F401E00FF11D80817A
:10132000B60190E065D20111F6CF29CFF601868192
:10133000978102C08FEF9FEF2B96EEE0E8C120FD72
:1013400009C0FC0123FD05C022FF02C07383628334
:1013500051834083089544FD17C046FD17C0AB017B
:10136000BC01DA01FB01AA0FBB1FEE1FFF1F109487
:10137000D1F74A0F5B1F6E1F7F1FCB01BA01660FAB
:10138000771F881F991F09C033E001C034E0660F42
:10139000771F881F991F3150D1F7620F711D811D72
:1013A000911D08950F931F93CF93DF938C01C80174
:1013B000E1D1EC0197FD06C0C1D1892BC1F7B8017D
:1013C000CE0152D2CE01DF91CF911F910F9108959E
:1013D0008F929F92AF92BF92EF92FF920F931F93C3
:1013E000CF93DF938C01D62F7A01B22EC3D19C010B
:1013F00033272B32310531F02D32310559F48B2D45
:101400008068B82ED15011F480E061C0C801B2D11B
:1014100097FDFACFCB2DCD7F2B2D2073F9F48033A0
:10142000E9F4AA24AA94AD0E09F43EC0C801A2D1E1
:1014300097FD3AC09C012F7D33272835310541F4B3
:10144000C264D25089F1C80195D197FF07C02CC062
:10145000B6FE02C0C26001C0C261DA2D812C912C9F
:10146000540120ED280F283078F0C4FF03C0B801E4
:10147000FBD117C02A3040F0C6FFF9CF2F7D3FEED9
:10148000320F3630A0F727504C2FC501B40163DF6F
:101490004B015C01C260D15051F0C8016BD197FF84
:1014A000E0CFC1FD04C0B0CF812C912C5401C7FF07
:1014B00008C0B094A09490948094811C911CA11CAD
:1014C000B11C2C2FB501A401C70139DF81E0DF91E8
:1014D000CF911F910F91FF90EF90BF90AF909F9091
:1014E0008F900895A0E0B0E0E7E7FAE0F3C06C0168
:1014F000EB015A01FC0117821682512CF601F38090
:10150000FE01F3FC8591F3FE8191182FEF018823F2
:1015100009F4D4C090E012D1892B19F0C60142DF42
:10152000EDCF153241F4FE01F3FC1591F3FE11915C
:10153000EF01153271F4C6011DD197FDBDC0412FD9
:1015400050E09C01332724173507C1F2B6018CD136
:10155000B5C01A3239F4F3FC1591F3FE1191EF0185
:1015600001E001C000E0E12C20ED210F2A3078F4E9
:1015700002606E2D70E080E090E040E2ECDEE62E4E
:10158000FE01F3FC1591F3FE1191EF01EDCF01FF88
:1015900003C0E11003C092C0EE24EA94183619F09B
:1015A0001C3651F010C0FE01F3FC1591F3FE1191B1
:1015B000EF01183641F408600460FE01F3FC159158
:1015C000F3FE1191EF01112309F478C0612F70E04F
:1015D0008FE790E0BBD0892B09F470C000FD07C0F5
:1015E000F50180809180C50102965C0102C0812CCA
:1015F000912C1E3649F4F6014681578160E070E077
:10160000202FC4019CDE7ACF1336A1F401FD02C065
:10161000EE24E394C601AED097FD4EC08114910430
:1016200029F0F4018083C40101964C01EA94E11091
:10163000F1CF3EC0C601B6DE97FD3EC01F3649F170
:1016400028F4143621F1193639F125C0133771F019
:101650001537E9F020C08114910429F0F40160826B
:10166000C40101964C01EA94EE2059F0C60182D0E3
:101670003C0197FD06C062D0892B69F3B601C30116
:10168000F3D081149104A1F0F401108211C0006222
:1016900003C0006101C00064202FA4016E2DC601AB
:1016A00097DE811105C0F6018381807329F406C09D
:1016B00000FD24CF539422CF552019F0852D90E0C2
:1016C00002C08FEF9FEFCDB7DEB7EFE01FC02F92C4
:1016D0003F924F925F926F927F928F929F92AF92C2
:1016E000BF92CF92DF92EF92FF920F931F93CF930F
:1016F000DF93CDB7DEB7CA1BDB0B0FB6F894DEBFA6
:101700000FBECDBF09942A88398848885F846E84CB
:101710007D848C849B84AA84B984C884DF80EE8015
:10172000FD800C811B81AA81B981CE0FD11D0FB61E
:10173000F894DEBF0FBECDBFED01089591110BC12E
:10174000803219F089508550D0F70895FC0105903A
:10175000061621F00020D9F7C00108953197CF0176
:101760000895FB01DC0102C001900D9241505040F0
:10177000D8F70895CF93DF93EC012B8120FF33C07E
:1017800026FF0AC02F7B2B838E819F8101969F832A
:101790008E838A8190E029C022FF0FC0E881F98101
:1017A0008081082E000C990B009719F420622B837E
:1017B0001AC03196F983E8830EC0EA85FB85099546
:1017C00097FF09C02B81019611F080E201C080E1F2
:1017D000822B8B8308C02E813F812F5F3F4F3F8339
:1017E0002E83992702C08FEF9FEFDF91CF9108954D
:1017F0000F931F93CF93DF93FB01238121FD03C040
:101800008FEF9FEF2CC022FF16C0468157812481A5
:1018100035814217530744F4A081B1819D012F5FA8
:101820003F4F318320838C93268137812F5F3F4F39
:101830003783268314C08B01EC01FB010084F18502
:10184000E02D0995892BE1F6D80116968D919C9192
:101850001797019617969C938E931697CE01DF915A
:10186000CF911F910F910895FB01238120FF12C09A
:1018700026FD10C08F3F3FEF930761F082832F7DDD
:1018800020642383268137812150310937832683C1
:10189000992708958FEF9FEF0895FA01AA2728301E
:1018A00051F1203181F1E8946F936E7F6E5F7F4F2D
:1018B0008F4F9F4FAF4FB1E03ED0B4E03CD0670FA9
:1018C000781F891F9A1FA11D680F791F8A1F911DFC
:1018D000A11D6A0F711D811D911DA11D20D009F44C
:1018E00068943F912AE0269F11243019305D31938E
:1018F000DEF6CF010895462F4770405D4193B3E077
:101900000FD0C9F7F6CF462F4F70405D4A3318F01D
:10191000495D31FD4052419302D0A9F7EACFB4E0CE
:10192000A6959795879577956795BA95C9F7009786
:101930006105710508959B01AC010A2E0694579527
:10194000479537952795BA95C9F7620F731F841F7E
:10195000951FA01D0895992788270895F894FFCF13
:1019600069646C65000001CE01370201630000006C
:101970006D61696E0016002802021C040507090B40
:10198000000D0E0000000000B306AD06BF06B9064C
:10199000BD06B706B106AB06C306FF20FF00FF0277
:00000001FF
